:020000040800F2
:1000000000800120555900082D5800083958000873
:100010003F580008455800084B58000800000000F1
:10002000000000000000000000000000515800081F
:100030005F580008000000006D580008A55900082E
:10004000A5590008A5590008A5590008A559000898
:10005000A55900087B58000889580008A5590008D0
:10006000A5590008A5590008A5590008A559000878
:10007000A5590008A5590008A5590008A559000868
:1000800099580008AD580008A5590008A55900085E
:10009000A5590008A5590008A5590008A559000848
:1000A000A5590008C1580008A5590008A55900081D
:1000B000D5580008A5590008A5590008A5590008F9
:1000C000A5590008A5590008A5590008A559000818
:1000D000A5590008A5590008A5590008A559000808
:1000E000A5590008A5590008A5590008A5590008F8
:1000F000A5590008A5590008A5590008A5590008E8
:10010000A5590008A5590008A5590008A5590008D7
:10011000A5590008A5590008A5590008A5590008C7
:10012000A5590008A5590008A5590008A5590008B7
:10013000A5590008A5590008A5590008A5590008A7
:10014000A5590008A5590008A5590008A559000897
:10015000A5590008A5590008A5590008A559000887
:10016000A5590008A5590008A5590008A559000877
:10017000A5590008A5590008A5590008000000006D
:08018000A5590008A55900086B
:1001880010B5054C237833B9044B13B10448AFF3C9
:1001980000800123237010BD04000020000000002F
:1001A800005A000808B5034B1BB103490348AFF3D5
:1001B800008008BD0000000008000020005A000868
:1001C80080F0004002E000BF81F0004142001FBF04
:1001D8005FEA410392EA030F7FEA226C7FEA236C0D
:1001E8006AD04FEA1262D2EB1363C1BFD218414002
:1001F80048404140B8BF5B42192B88BF704710F098
:10020800004F40F4000020F07F4018BF404211F03A
:10021800004F41F4000121F07F4118BF494292EAA2
:10022800030F3FD0A2F1010241FA03FC10EB0C00CE
:10023800C3F1200301FA03F100F0004302D549425B
:1002480060EB4000B0F5000F13D3B0F1807F06D308
:1002580040084FEA310102F10102FE2A51D2B1F100
:10026800004F40EBC25008BF20F0010040EA0300F5
:100278007047490040EB000010F4000FA2F10102A2
:10028800EDD1B0FA80FCACF1080CB2EB0C0200FA2C
:100298000CF0AABF00EBC25052421843BCBFD0407A
:1002A8001843704792F0000F81F4000106BF80F4F4
:1002B80000000132013BB5E74FEA41037FEA226CB7
:1002C80018BF7FEA236C21D092EA030F04D092F082
:1002D800000F08BF0846704790EA010F1CBF0020B6
:1002E800704712F07F4F04D1400028BF40F0004013
:1002F800704712F100723CBF00F50000704700F033
:10030800004343F0FE4040F4000070477FEA226259
:1003180016BF08467FEA23630146420206BF5FEA2A
:10032800412390EA010F40F4800070474FF000032A
:1003380004E000BF10F0004348BF40425FEA000CF1
:1003480008BF704743F0964301464FF000001CE099
:1003580050EA010208BF70474FF000030AE000BFEF
:1003680050EA010208BF704711F0004302D540422D
:1003780061EB41015FEA010C02BF8446014600209F
:1003880043F0B64308BFA3F18053A3F50003BCFABA
:100398008CF2083AA3EBC25310DB01FA02FC634467
:1003A80000FA02FCC2F12002BCF1004F20FA02F26E
:1003B80043EB020008BF20F00100704702F1200261
:1003C80001FA02FCC2F1200250EA4C0021FA02F2C2
:1003D80043EB020008BF20EADC7070477BB972B9B2
:1003E8000029BEBF00204FF0004106E008BF0028EA
:1003F8001CBF6FF000414FF0FF3000F0C5B9ADF100
:10040800080C6DE904CE002909DB002B1ADB00F08B
:100418004DF8DDF804E0DDE9022304B070474042FE
:1004280061EB4101002B1BDB00F040F8DDF804E034
:10043800DDE9022304B0404261EB4101524263EB23
:1004480043037047524263EB430300F02FF8DDF893
:1004580004E0DDE9022304B0404261EB410170474A
:10046800524263EB430300F021F8DDF804E0DDE9D4
:10047800022304B0524263EB4303704753B94AB9AD
:10048800002908BF00281CBF4FF0FF314FF0FF3094
:1004980000F07AB9ADF1080C6DE904CE00F006F869
:1004A800DDF804E0DDE9022304B070472DE9F047E8
:1004B8008C460D460446089E002B51D18A421746A9
:1004C8006DD9B2FA82FEBEF1000F0BD0CEF1200C2E
:1004D80001FA0EF520FA0CFC02FA0EF74CEA050CAC
:1004E80000FA0EF44FEA174A250CBCFBFAF81FFA7B
:1004F80087F90AFB18CC45EA0C4508FB09F3AB421F
:100508000AD9ED1908F1FF3280F02381AB4240F29D
:100518002081A8F102083D44ED1AA4B2B5FBFAF017
:100528000AFB105544EA054400FB09F9A14509D91D
:10053800E41900F1FF3380F00A81A14540F20781F8
:1005480002383C44A4EB090440EA08400021002E8C
:1005580061D024FA0EF4002334607360BDE8F0879C
:100568008B4207D9002E54D0002186E82100084686
:10057800BDE8F087B3FA83F1002940F08E80AB42E2
:1005880002D3824200F2FA80841A65EB0305012047
:10059800AC46002E3FD086E81010BDE8F08712B9AF
:1005A8000127B7FBF2F7B7FA87FEBEF1000F34D187
:1005B800EB1B3A0C1FFA87FC0121B3FBF2F8250C60
:1005C80002FB183345EA03450CFB08F3AB4207D995
:1005D800ED1908F1FF3002D2AB4200F2D18080461B
:1005E800ED1AA3B2B5FBF2F002FB105543EA05443D
:1005F8000CFB00FCA44507D9E41900F1FF3302D233
:10060800A44500F2B8801846A4EB0C0440EA084060
:100618009DE731463046BDE8F087CEF1200405FA63
:100628000EF307FA0EF720FA04F83A0C25FA04F448
:1006380048EA0308B4FBF2F14FEA184502FB1144FB
:100648001FFA87FC45EA044501FB0CF3AB4200FAAC
:100658000EF409D9ED1901F1FF3080F08A80AB4220
:1006680040F2878002393D44EB1A1FFA88F5B3FB44
:10067800F2F002FB103345EA034500FB0CF3AB42F2
:1006880007D9ED1900F1FF386FD2AB426DD90238A6
:100698003D44EB1A40EA01418FE7C1F1200722FAF5
:1006A80007F88B4005FA01F448EA030320FA07FE2D
:1006B8004FEA134CFD404EEA040EB5FBFCF94FEA35
:1006C8001E440CFB19551FFA83F844EA054509FB3B
:1006D80008F4AC4202FA01F200FA01FA08D9ED185E
:1006E80009F1FF3043D2AC4241D9A9F102091D44B6
:1006F8002D1B1FFA8EFEB5FBFCF00CFB10554EEAC5
:10070800054400FB08F8A04507D9E41800F1FF35B7
:1007180029D2A04527D902381C4440EA0940A4EB55
:100728000804A0FB02894C45C6464D4615D312D095
:1007380056B1BAEB0E0364EB050404FA07F7CB4095
:100748001F43CC40376074600021BDE8F08718462D
:10075800F8E69046E0E6C245EAD2B8EB020E69EB4D
:1007680003050138E4E72846D7E7404691E7814684
:10077800BEE7014678E702383C4445E7084608E703
:10078800A8F102083D442BE7704700BF80B582B04E
:1007980000AF0023FB71032000F0D1F8002004F023
:1007A800C7FF0346002B02D00123FB7101E004F0D0
:1007B80075FEFB7918460837BD4680BD80B400AF8A
:1007C800044B1B680133034A136000BFBD465DF844
:1007D800047B70472000002080B400AF034B1B68E7
:1007E8001846BD465DF8047B704700BF2000002016
:1007F80080B485B000AF78607B6803F00703FB60C6
:100808000C4BDB68BB60BA684FF6FF031340BB6054
:10081800FB681A02BB68134343F0BF6343F4003319
:10082800BB60044ABB68D36000BF1437BD465DF89F
:10083800047B704700ED00E080B400AF044BDB6838
:100848001B0A03F007031846BD465DF8047B704792
:1008580000ED00E080B483B000AF0346FB710949A6
:1008680097F907305B09FA7902F01F02012000FAB4
:1008780002F241F8232000BF0C37BD465DF8047B27
:10088800704700BF00E100E080B483B000AF0346CA
:100898003960FB7197F90730002B0BDA0D49FB79AA
:1008A80003F00F03043B3A68D2B21201D2B20B44F0
:1008B8001A7609E0084997F907303A68D2B2120166
:1008C800D2B20B4483F8002300BF0C37BD465DF855
:1008D800047B704700ED00E000E100E080B489B0DF
:1008E80000AFF860B9607A60FB6803F00703FB614A
:1008F800FB69C3F10703042B28BF0423BB61FB6911
:100908000433062B02D9FB69033B00E000237B611B
:100918000122BB6902FA03F35A1EBB681A407B69BD
:100928009A4001217B6901FA03F3591E7B680B4049
:10093800134318462437BD465DF8047B704780B5DD
:1009480082B000AF78607868FFF752FF00BF0837C1
:10095800BD4680BD80B586B000AF0346B9607A60F9
:10096800FB7300237B61FFF767FF78617A68B968DA
:100978007869FFF7B3FF024697F90F30114618461A
:10098800FFF782FF00BF1837BD4680BD80B582B033
:1009980000AF0346FB7197F907301846FFF75AFF77
:1009A80000BF0837BD4680BD80B485B000AF786011
:1009B8007B68002B01D1012398E07B681B681A46ED
:1009C8004D4B9A420FD87B681B681A464B4B134411
:1009D8004B4AA2FB03231B099A007B685A647B6875
:1009E800484A1A640EE07B681B681A46464B134453
:1009F800434AA2FB03231B099A007B685A647B685D
:100A0800424A1A647B68022283F825207B681B68A7
:100A18001B68FB60FB6823F4FF4323F07003FB6053
:100A28007B689A687B68DB681A437B681B691A4392
:100A38007B685B691A437B689B691A437B68DB693F
:100A48001A437B681B6A1343FA681343FB607B688D
:100A58001B68FA681A607B689B68B3F5804F39D0C9
:100A68007B681B6C274A93421AD12949284B1A687C
:100A78007B685B6C03F01C030F2000FA03F3DB4375
:100A880013400B602248224B1A687B6859687B68C0
:100A98005B6C03F01C0301FA03F31343036019E0D2
:100AA8001C491C4B1A687B685B6C03F01C030F2005
:100AB80000FA03F3DB4313400B601648154B1A6822
:100AC8007B6859687B685B6C03F01C0301FA03F3CD
:100AD800134303607B680022DA637B68012283F892
:100AE80025207B68002283F8242000231846143729
:100AF800BD465DF8047B704707040240F8FFFDBF60
:100B0800CDCCCCCC00000240F8FBFDBF0004024075
:100B1800A8000240A804024080B584B000AF786005
:100B28007B681B6C1B68FB607B681B681B68BB6071
:100B38007B685B6C03F01C0304229A40FB6813403B
:100B4800002B26D0BB6803F00403002B21D07B6860
:100B58001B681B6803F02003002B07D17B681B6808
:100B68007A681268126822F004021A607B681B6CAB
:100B78007A68526C02F01C02042101FA02F25A60EF
:100B88007B681B6B002B71D07B681B6B7868984760
:100B98006CE07B685B6C03F01C0302229A40FB68E4
:100BA8001340002B2ED0BB6803F00203002B29D082
:100BB8007B681B681B6803F02003002B0BD17B6844
:100BC8001B687A681268126822F00A021A607B6849
:100BD800012283F825207B681B6C7A68526C02F02E
:100BE8001C02022101FA02F25A607B68002283F893
:100BF80024207B68DB6A002B38D07B68DB6A786846
:100C0800984733E07B685B6C03F01C0308229A402A
:100C1800FB681340002B2AD0BB6803F00803002BA5
:100C280025D07B681B687A681268126822F00E0269
:100C38001A607B681B6C7A68526C02F01C020121F6
:100C480001FA02F25A607B680122DA637B680122AA
:100C580083F825207B68002283F824207B685B6B5F
:100C6800002B04D07B685B6B7868984700BF00BF97
:100C78001037BD4680BD000080B487B000AF7860F3
:100C8800396000237B617FE13B681A6801217B6939
:100C980001FA03F31340FB60FB68002B00F071813D
:100CA8003B685B68022B03D03B685B68122B23D13F
:100CB8007B69DA087B68083253F822303B617B692C
:100CC80003F007039B000F2202FA03F3DB433A69A0
:100CD80013403B613B681A697B6903F007039B007B
:100CE80002FA03F33A6913433B617B69DA087B68CC
:100CF8000832396943F822107B681B683B617B69BD
:100D08005B00032202FA03F3DB433A6913403B61B9
:100D18003B685B6803F003027B695B0002FA03F33C
:100D28003A6913433B617B683A691A603B685B68C0
:100D3800012B0BD03B685B68022B07D03B685B68D4
:100D4800112B03D03B685B68122B30D17B689B6802
:100D58003B617B695B00032202FA03F3DB433A69D8
:100D680013403B613B68DA687B695B0002FA03F376
:100D78003A6913433B617B683A699A607B685B68B0
:100D88003B6101227B6902FA03F3DB433A691340B2
:100D98003B613B685B681B0903F001027B6902FA4F
:100DA80003F33A6913433B617B683A695A603B68CD
:100DB8005B6803F00303032B18D17B68DB6A3B6194
:100DC80001227B6902FA03F3DB433A6913403B6172
:100DD8003B685B68DB0803F001027B6902FA03F3F6
:100DE8003A6913433B617B683A69DA627B68DB687E
:100DF8003B617B695B00032202FA03F3DB433A6938
:100E080013403B613B689A687B695B0002FA03F315
:100E18003A6913433B617B683A69DA603B685B680F
:100E280003F08053002B00F0AC805E4A5D4B1B6ED4
:100E380043F0010313665B4B1B6E03F00103BB60B9
:100E4800BB68594A7B699B08023352F823303B61DF
:100E58007B6903F003039B000F2202FA03F3DB43D1
:100E68003A6913403B617B68B3F1904F25D07B68AA
:100E78004E4A93421FD07B684D4A934219D07B68F3
:100E88004C4A934213D07B684B4A93420DD07B68FF
:100E98004A4A934207D07B68494A934201D10623C4
:100EA8000CE007230AE0052308E0042306E00323F7
:100EB80004E0022302E0012300E000237A6902F043
:100EC8000302920093403A6913433B6136497B69B8
:100ED8009B0802333A6941F823203A4B1B683B616F
:100EE800FB68DB433A6913403B613B685B6803F48A
:100EF8008033002B03D03A69FB6813433B61314AC6
:100F08003B6913602F4B5B683B61FB68DB433A69C5
:100F180013403B613B685B6803F40033002B03D04C
:100F28003A69FB6813433B61264A3B695360254B8A
:100F38009B683B61FB68DB433A6913403B613B6854
:100F48005B6803F48013002B03D03A69FB681343F2
:100F58003B611C4A3B6993601A4BDB683B61FB6849
:100F6800DB433A6913403B613B685B6803F4001359
:100F7800002B03D03A69FB6813433B61114A3B6974
:100F8800D3607B6901337B613B681A687B6922FA0D
:100F980003F3002B7FF478AE00BF1C37BD465DF825
:100FA800047B704700100240000001400004004824
:100FB80000080048000C00480010004800140048D1
:100FC800001800480004014080B483B000AF786086
:100FD8000B467B8013467B707B78002B03D07A8886
:100FE8007B689A6102E07A887B689A6200BF0C3756
:100FF800BD465DF8047B704780B483B000AF78606D
:101008000B467B807B685A697B885A407B685A61AB
:1010180000BF0C37BD465DF8047B704780B582B0D1
:1010280000AF0346FB80084B5A69FB881340002B2E
:1010380006D0054AFB885361FB88184603F078FF01
:1010480000BF0837BD4680BD0004014080B582B0AE
:1010580000AF78607B68002B01D1012380E07B68BA
:1010680093F84130DBB2002B06D17B68002283F86D
:101078004020786804F03CFA7B68242283F84120F9
:101088007B681B687A681268126822F001021A608D
:101098007B681B687A68526822F070621A617B6804
:1010A8001B687A681268926822F400429A607B682A
:1010B800DB68012B07D17B681B687A68926842F469
:1010C80000429A6006E07B681B687A68926842F47E
:1010D80004429A607B68DB68022B04D17B681B683A
:1010E8004FF400625A607B681A687B681B685B680B
:1010F80043F0007343F4004353607B681B687A68CD
:101108001268D26822F40042DA607B681B687A6849
:1011180011697A68526911437A68926912020A431E
:10112800DA607B681B687A68D1697A68126A0A4350
:101138001A607B681B687A681268126842F00102BC
:101148001A607B6800225A647B68202283F8412059
:101158007B6800221A637B68002283F84220002300
:1011680018460837BD4680BD80B588B002AFF86024
:10117800084611461A4603467B810B463B811346B7
:10118800FB80FB6893F84130DBB2202B40F0F980FC
:101198003B6A002B02D0BB8C002B05D1FB684FF4B7
:1011A80000725A640123EDE0FB6893F84030012B8C
:1011B80001D10223E6E0FB68012283F84020FFF713
:1011C8000BFB78617B690093192301224FF40041DE
:1011D800F86800F0CBFB0346002B01D00123D1E0D7
:1011E800FB68212283F84120FB68402283F84220D3
:1011F800FB6800225A64FB683A6A5A62FB68BA8C38
:101208005A85FB6800225A63F8883A8979897B698C
:101218000193BB6A00930346F86800F0DBFA0346C3
:10122800002B05D0FB68002283F840200123A9E0A9
:10123800FB685B8D9BB2FF2B0ED9FB68FF221A85DA
:10124800FB681B8DDAB27989002300934FF0807315
:10125800F86800F0ADFC0FE0FB685B8D9AB2FB68A4
:101268001A85FB681B8DDAB27989002300934FF049
:101278000073F86800F09CFC7A69B96AF86800F0B5
:10128800B5FB0346002B01D001237BE0FB681B68FC
:10129800FA68526A12789A62FB685B6A5A1CFB68A1
:1012A8005A62FB685B8D9BB2013B9AB2FB685A8518
:1012B800FB681B8D013B9AB2FB681A85FB685B8D46
:1012C8009BB2002B34D0FB681B8D002B30D17B697F
:1012D8000093BB6A00228021F86800F047FB0346B0
:1012E800002B01D001234DE0FB685B8D9BB2FF2BE7
:1012F8000ED9FB68FF221A85FB681B8DDAB2798943
:10130800002300934FF08073F86800F051FC0FE061
:10131800FB685B8D9AB2FB681A85FB681B8DDAB295
:101328007989002300934FF00073F86800F040FCBF
:10133800FB685B8D9BB2002B9ED17A69B96AF8680D
:1013480000F094FB0346002B01D001231AE0FB6850
:101358001B682022DA61FB681A68FB681B685968F9
:101368000A4B0B405360FB68202283F84120FB683E
:10137800002283F84220FB68002283F840200023E3
:1013880000E0022318461837BD4680BD00E800FE7D
:1013980080B588B002AFF860084611461A46034681
:1013A8007B810B463B811346FB80FB6893F84130F9
:1013B800DBB2202B40F0FD803B6A002B02D0BB8CB7
:1013C800002B05D1FB684FF400725A640123F1E049
:1013D800FB6893F84030012B01D10223EAE0FB6857
:1013E800012283F84020FFF7F7F978617B690093C1
:1013F800192301224FF40041F86800F0B7FA0346B8
:10140800002B01D00123D5E0FB68222283F841207C
:10141800FB68402283F84220FB6800225A64FB687C
:101428003A6A5A62FB68BA8C5A85FB6800225A638A
:10143800F8883A8979897B690193BB6A00930346E6
:10144800F86800F01BFA0346002B05D0FB68002261
:1014580083F840200123ADE0FB685B8D9BB2FF2B36
:101468000ED9FB68FF221A85FB681B8DDAB27989D1
:10147800524B00934FF08073F86800F099FB0FE02F
:10148800FB685B8D9AB2FB681A85FB681B8DDAB224
:1014980079894A4B00934FF00073F86800F088FB95
:1014A8007B690093BB6A00220421F86800F05EFAA9
:1014B8000346002B01D001237CE0FB685B6AFA68D5
:1014C8001268526AD2B21A70FB685B6A5A1CFB68CF
:1014D8005A62FB681B8D013B9AB2FB681A85FB6850
:1014E8005B8D9BB2013B9AB2FB685A85FB685B8DAA
:1014F8009BB2002B34D0FB681B8D002B30D17B694D
:101508000093BB6A00228021F86800F02FFA034696
:10151800002B01D001234DE0FB685B8D9BB2FF2BB4
:101528000ED9FB68FF221A85FB681B8DDAB2798910
:10153800002300934FF08073F86800F039FB0FE048
:10154800FB685B8D9AB2FB681A85FB681B8DDAB263
:101558007989002300934FF00073F86800F028FBA6
:10156800FB685B8D9BB2002B9AD17A69B96AF868DF
:1015780000F07CFA0346002B01D001231AE0FB6837
:101588001B682022DA61FB681A68FB681B685968C7
:101598000B4B0B405360FB68202283F84120FB680B
:1015A800002283F84220FB68002283F840200023B1
:1015B80000E0022318461837BD4680BD002400808D
:1015C80000E800FE80B58AB002AFF8607A603B6040
:1015D8000B467B8100237B61FB6893F84130DBB2CB
:1015E800202B40F0F180FB681B689B6903F40043E3
:1015F800B3F5004F01D10223E7E0FB6893F84030D0
:10160800012B01D10223E0E0FB68012283F840208E
:10161800FB68242283F84120FB6800225A64FB6897
:101628001A68FB68DB68012B07D17B89C3F30903C0
:1016380043F0007343F4005304E07B89C3F30903C8
:1016480043F420535360FFF7C7F8B861FB681B6881
:101658009B6903F02003202B0CBF01230023DBB27E
:10166800FB77FB681B689B6903F01003102B0CBF0A
:1016780001230023DBB2BB7734E03B68B3F1FF3FC3
:101688001AD0FFF7A9F80246BB69D21A3B689A42FA
:1016980002D83B68002B0FD1FB68202283F8412039
:1016A800FB685B6C43F02002FB685A64FB6800220D
:1016B80083F84020012388E0FB681B689B6903F0DE
:1016C8002003202B0CBF01230023DBB2FB77FB6830
:1016D8001B689B6903F01003102B0CBF0123002328
:1016E800DBB2BB77FB7F002B02D1BB7F002BC4D0C2
:1016F800FB681B689B6903F01003102B1AD0BB69A9
:1017080000933B6800222021F86800F02FF9034677
:10171800002B01D0012358E0FB681B682022DA6106
:10172800FB68202283F84120FB68002283F84020D0
:1017380000234AE0BB6900933B6800222021F86837
:1017480000F014F90346002B01D001233DE0FB68AB
:101758001B681022DA61FB681B682022DA617A694B
:101768007B689A4218D1FB681B68FA68126852684D
:1017780042F480425A60BB6900933B6800222021F2
:10178800F86800F0F3F80346002B01D001231CE0B1
:10179800FB681B682022DA617B6901337B617A6907
:1017A8007B689A42FFF43BAFFB68202283F8412014
:1017B800FB685B6C43F02002FB685A64FB680022FC
:1017C80083F84020012300E0022318462037BD4655
:1017D80080BD000080B586B002AFF86008461146AB
:1017E8001A4603467B810B463B811346FB80FB88E8
:1017F800DAB27989204B00934FF08073F86800F0D3
:10180800D7F9FA69B969F86800F0F0F80346002BCF
:1018180001D001232CE0FB88012B05D1FB681B6854
:101828003A89D2B29A6215E0FB681B683A89120AB3
:1018380092B2D2B29A62FA69B969F86800F0D6F839
:101848000346002B01D0012312E0FB681B683A898C
:10185800D2B29A62FB690093BB6900228021F868C2
:1018680000F084F80346002B01D0012300E0002398
:1018780018461037BD4680BD0020008080B586B070
:1018880002AFF860084611461A4603467B810B46AC
:101898003B811346FB80FB88DAB27989204B0093A1
:1018A8000023F86800F084F9FA69B969F86800F06B
:1018B8009DF80346002B01D001232CE0FB88012B67
:1018C80005D1FB681B683A89D2B29A6215E0FB68B9
:1018D8001B683A89120A92B2D2B29A62FA69B96955
:1018E800F86800F083F80346002B01D0012312E0CA
:1018F800FB681B683A89D2B29A62FB690093BB699C
:1019080000224021F86800F031F80346002B01D08E
:10191800012300E0002318461037BD4680BD00BFF4
:101928000020008080B483B000AF78607B681B68BB
:101938009B6903F00203022B03D17B681B6800221A
:101948009A627B681B689B6903F00103012B07D02F
:101958007B681B687A681268926942F001029A6192
:1019680000BF0C37BD465DF8047B704780B584B076
:1019780000AFF860B9603B601346FB7122E03B683A
:10198800B3F1FF3F1ED0FEF727FF0246BB69D21A0C
:101998003B689A4202D83B68002B13D1FB685B6C0A
:1019A80043F02002FB685A64FB68202283F8412038
:1019B800FB68002283F84220FB68002283F840205D
:1019C80001230FE0FB681B689A69BB681A40BB6873
:1019D8009A420CBF01230023DBB21A46FB799A42D4
:1019E800CDD0002318461037BD4680BD80B584B0E1
:1019F80000AFF860B9607A602CE07A68B968F86876
:101A080000F070F80346002B01D001232AE0BB68E0
:101A1800B3F1FF3F1ED0FEF7DFFE02467B68D21A05
:101A2800BB689A4202D8BB68002B13D1FB685B6C79
:101A380043F02002FB685A64FB68202283F84120A7
:101A4800FB68002283F84220FB68002283F84020CC
:101A5800012307E0FB681B689B6903F00203022B64
:101A6800CBD1002318461037BD4680BD80B584B061
:101A780000AFF860B9607A6028E07A68B968F868F9
:101A880000F030F80346002B01D0012326E0FEF7D2
:101A9800A3FE02467B68D21ABB689A4202D8BB688A
:101AA800002B13D1FB685B6C43F02002FB685A647F
:101AB800FB68202283F84120FB68002283F842203B
:101AC800FB68002283F84020012307E0FB681B68BD
:101AD8009B6903F02003202BCFD100231846103731
:101AE800BD4680BD80B584B000AFF860B9607A604B
:101AF800FB681B689B6903F01003102B51D122E08F
:101B0800BB68B3F1FF3F1ED0FEF766FE02467B6856
:101B1800D21ABB689A4202D8BB68002B13D1FB6863
:101B28005B6C43F02002FB685A64FB68202283F850
:101B38004120FB68002283F84220FB68002283F8DA
:101B4800402001232EE0FB681B689B6903F02003FB
:101B5800202BD5D1FB681B681022DA61FB681B6853
:101B68002022DA61F868FFF7DDFEFB681A68FB6877
:101B78001B6859680D4B0B405360FB685B6C43F066
:101B88000402FB685A64FB68202283F84120FB6842
:101B9800002283F84220FB68002283F840200123BA
:101BA80000E0002318461037BD4680BD00E800FE5F
:101BB80080B485B000AFF8607B600B467B8113462C
:101BC8007B72FB681A68FB681B685968BB695B0D08
:101BD80003F480600B4B0343DB4319407B89C3F359
:101BE80009007B7A1B0403F47F0318437B681843BE
:101BF800BB6903430B43536000BF1437BD465DF810
:101C0800047B7047FF63FF0380B483B000AF786044
:101C180039607B6893F84130DBB2202B38D17B6880
:101C280093F84030012B01D1022332E07B68012276
:101C380083F840207B68242283F841207B681B6856
:101C48007A681268126822F001021A607B681B68C1
:101C58007A681268126822F480521A607B681B68DE
:101C68007A68126811683A680A431A607B681B68C8
:101C78007A681268126842F001021A607B682022B2
:101C880083F841207B68002283F84020002300E08D
:101C9800022318460C37BD465DF8047B704780B4B4
:101CA80085B000AF786039607B6893F84130DBB26B
:101CB800202B39D17B6893F84030012B01D10223C6
:101CC80033E07B68012283F840207B68242283F874
:101CD80041207B681B687A681268126822F001024A
:101CE8001A607B681B681B68FB60FB6823F47063E1
:101CF800FB603B681B02FA681343FB607B681B6848
:101D0800FA681A607B681B687A681268126842F081
:101D180001021A607B68202283F841207B68002238
:101D280083F84020002300E0022318461437BD46FC
:101D38005DF8047B7047000080B582B000AF786022
:101D48000B46FB707B68002B0CD1134B5B6903F4CB
:101D58000073B3F5007F0ED100F096F80346002B10
:101D680009D016E00C4B5B6903F40073B3F5007FF0
:101D780001D000F079F8094A084B1B6923F00403E5
:101D88001361FB78012B01D130BF02E040BF20BFB7
:101D980020BF0837BD4680BD0070004000ED00E060
:101DA80080B400AF044B1B6803F4C0631846BD46FB
:101DB8005DF8047B704700BF0070004080B485B0B8
:101DC80000AF78607B68B3F5007F30D1234B1B6888
:101DD80003F4C063B3F5007F38D0204A1F4B1B685B
:101DE80023F4C06343F4007313601D4B1B68322255
:101DF80002FB03F31B4AA2FB03239B0C0133FB608A
:101E080002E0FB68013BFB60144B5B6903F48063F1
:101E1800B3F5806F02D1FB68002BF2D10F4B5B69E1
:101E280003F48063B3F5806F10D103230FE00B4BED
:101E38001B6803F4C063B3F5806F07D0074A074BEC
:101E48001B6823F4C06343F48063136000231846BF
:101E58001437BD465DF8047B704700BF0070004032
:101E68000000002083DE1B4380B400AF054A054B09
:101E78001B6843F48043136000BFBD465DF8047BD4
:101E8800704700BF0070004080B483B000AF174AAD
:101E9800164B1B6823F480431360154B1B683222D2
:101EA80002FB03F3134AA2FB03239B0C01337B6061
:101EB80002E07B68013B7B600C4B5B6903F40073B9
:101EC800B3F5007F02D17B68002BF2D1074B5B6929
:101ED80003F40073B3F5007F01D1032300E000236E
:101EE80018460C37BD465DF8047B7047007000400B
:101EF8000000002083DE1B4380B588B000AF786007
:101F08007B68002B01D1012353E3A34B9B6803F0AB
:101F18000C03BB61A04BDB6803F003037B617B68A8
:101F28001B6803F01003002B00F0DF80BB69002B57
:101F380007D0BB690C2B40F086807B69012B40F0F1
:101F48008280954B1B6803F00203002B05D07B6849
:101F58009B69002B01D101232BE37B681A6A8E4B06
:101F68001B6803F00803002B04D08B4B1B6803F09D
:101F7800F00305E0884BD3F894301B0903F0F00315
:101F88009A4223D97B681B6A184600F029FD03464C
:101F9800002B01D001230CE37F4A7F4B1B6843F0E1
:101FA800080313607C497C4B1B6823F0F0027B68B4
:101FB8001B6A13430B607849774B5B6823F47F42B5
:101FC8007B68DB691B0213434B6022E0724A724B49
:101FD8001B6843F0080313606F496F4B1B6823F0BD
:101FE800F0027B681B6A13430B606B496A4B5B68A2
:101FF80023F47F427B68DB691B0213434B607B68D9
:102008001B6A184600F0ECFC0346002B01D00123A4
:10201800CFE200F0B3FB01465F4B9B681B0903F05E
:102028000F035E4AD35C03F01F0321FA03F35C4AF3
:102038001360002003F07CFB0346FB73FB7B002B43
:1020480052D0FB7BB5E27B689B69002B32D0524AA9
:10205800514B1B6843F001031360FEF7BDFB386169
:1020680008E0FEF7B9FB02463B69D31A022B01D9F7
:1020780003239EE2484B1B6803F00203002BF0D0B9
:10208800454A454B1B6843F0080313604249424BDD
:102098001B6823F0F0027B681B6A13430B603E4900
:1020A8003D4B5B6823F47F427B68DB691B0213436B
:1020B8004B601AE0384A384B1B6823F00103136061
:1020C800FEF78AFB386108E0FEF786FB02463B69AB
:1020D800D31A022B01D903236BE22F4B1B6803F0A1
:1020E8000203002BF0D100E000BF7B681B6803F0FF
:1020F8000103002B72D0BB69082B05D0BB690C2BE0
:102108000ED17B69032B0BD1234B1B6803F40033DF
:10211800002B62D07B685B68002B5ED1012348E20C
:102128007B685B68B3F5803F06D11B4A1A4B1B6876
:1021380043F4803313601DE07B685B68B3F5A02F20
:102148000CD1154A144B1B6843F480231360124AC0
:10215800114B1B6843F4803313600BE00E4A0E4B9F
:102168001B6823F4803313600B4A0B4B1B6823F462
:10217800802313607B685B68002B1AD0FEF72CFB6A
:1021880038610FE0FEF728FB02463B69D31A642B3F
:1021980008D903230DE200BF00100240185A0008B6
:1021A80000000020AE4B1B6803F40033002BE9D07D
:1021B80014E0FEF711FB386108E0FEF70DFB02465C
:1021C8003B69D31A642B01D90323F2E1A44B1B68A2
:1021D80003F40033002BF0D100E000BF7B681B68DC
:1021E80003F00203002B60D0BB69042B05D0BB6948
:1021F8000C2B19D17B69022B16D1994B1B6803F460
:102208008063002B05D07B68DB68002B01D101239C
:10221800CFE19349924B5B6823F0F8527B681B69C6
:102228001B0613434B6040E07B68DB68002B23D020
:102238008B4A8B4B1B6843F480731360FEF7CCFA10
:10224800386108E0FEF7C8FA02463B69D31A022B48
:1022580001D90323ADE1824B1B6803F48063002B93
:10226800F0D07F497E4B5B6823F0F8527B681B698E
:102278001B0613434B6018E0794A794B1B6823F41B
:1022880080731360FEF7A8FA386108E0FEF7A4FA35
:1022980002463B69D31A022B01D9032389E1704B0B
:1022A8001B6803F48063002BF0D17B681B6803F084
:1022B8000803002B3CD07B685B69002B1CD0684A64
:1022C800674BD3F8943043F00103C2F89430FEF71B
:1022D80083FA386108E0FEF77FFA02463B69D31AB1
:1022E800022B01D9032364E15D4BD3F8943003F04A
:1022F8000203002BEFD01BE0594A594BD3F8943016
:1023080023F00103C2F89430FEF766FA386108E05A
:10231800FEF762FA02463B69D31A022B01D903235E
:1023280047E14F4BD3F8943003F00203002BEFD171
:102338007B681B6803F00403002B00F0A5800023D2
:10234800FB77474B9B6D03F08053002B0DD1444A1C
:10235800434B9B6D43F080539365414B9B6D03F05A
:102368008053BB60BB680123FB773E4B1B6803F4BB
:102378008073002B18D13B4A3A4B1B6843F4807397
:102388001360FEF729FA386108E0FEF725FA0246DD
:102398003B69D31A022B01D903230AE1314B1B688D
:1023A80003F48073002BF0D07B689B68012B08D165
:1023B8002B4A2B4BD3F8903043F00103C2F89030EE
:1023C80024E07B689B68052B10D1254A244BD3F861
:1023D800903043F00403C2F89030214A204BD3F8E0
:1023E800903043F00103C2F890300FE01C4A1C4BB8
:1023F800D3F8903023F00103C2F89030184A184BF4
:10240800D3F8903023F00403C2F890307B689B68BF
:10241800002B16D0FEF7E0F938610AE0FEF7DCF988
:1024280002463B69D31A41F28832934201D9032309
:10243800BFE00B4BD3F8903003F00203002BEDD034
:1024480019E0FEF7C9F938610EE0FEF7C5F9024652
:102458003B69D31A41F28832934205D90323A8E095
:102468000010024000700040544BD3F8903003F045
:102478000203002BE9D1FB7F012B05D14F4A4F4BBB
:102488009B6D23F0805393657B689B6A002B00F05B
:102498008F80BB690C2B00F089807B689B6A022BBC
:1024A80056D1464A454B1B6823F080731360FEF7EC
:1024B80093F9386108E0FEF78FF902463B69D31AB1
:1024C800022B01D9032374E03C4B1B6803F0007313
:1024D800002BF0D139497B681B6B013B1A017B68E3
:1024E8005B6B1B021A437B689B6B1B095B041A43DB
:1024F8007B68DB6A1A437B68DB6B5B08013B5B0527
:102508001A437B681B6C5B08013B5B061343CB607B
:102518002A4A2A4B1B6843F080731360274A274BCB
:10252800DB6843F08073D360FEF756F9386108E042
:10253800FEF752F902463B69D31A022B01D903234D
:1025480037E01E4B1B6803F00073002BF0D02FE020
:102558001A4A1A4B1B6823F080731360174B1B68C9
:1025680003F02053002B05D1144A144BDB6823F0E9
:102578000303D360114A114BDB6823F0887323F4FB
:102588008033D360FEF728F9386108E0FEF724F9B4
:1025980002463B69D31A022B01D9032309E0074BF2
:1025A8001B6803F00073002BF0D101E0012300E069
:1025B800002318462037BD4680BD00BF00100240EA
:1025C80080B584B000AF786039607B68002B01D19A
:1025D8000123C6E0654B1B6803F007023B689A427B
:1025E80010D26249614B1B6823F007023B68134312
:1025F8000B605E4B1B6803F007023B689A4201D0F0
:102608000123AEE07B681B6803F00103002B4CD06C
:102618007B685B68032B07D1554B1B6803F000737D
:10262800002B21D101239CE07B685B68022B07D13A
:102638004F4B1B6803F40033002B15D1012390E0A6
:102648007B685B68002B07D1494B1B6803F00203CA
:10265800002B09D1012384E0454B1B6803F48063F8
:10266800002B01D101237CE04149414B9B6823F0B9
:1026780003027B685B6813438B60FEF7ADF8F86074
:102688000AE0FEF7A9F80246FB68D31A41F288323D
:10269800934201D9032364E0354B9B6803F00C0295
:1026A8007B685B689B009A42EBD17B681B6803F0F0
:1026B8000203002B08D02E492D4B9B6823F0F00213
:1026C8007B689B6813438B60284B1B6803F00702E9
:1026D8003B689A4210D92549244B1B6823F007020E
:1026E8003B6813430B60214B1B6803F007023B68F0
:1026F8009A4201D0012334E07B681B6803F004038D
:10270800002B08D01A491A4B9B6823F4E0627B68B7
:10271800DB6813438B607B681B6803F00803002B9E
:1027280009D01349124B9B6823F460527B681B69DC
:10273800DB0013438B6000F021F801460C4B9B68CB
:102748001B0903F00F030B4AD35C03F01F0321FAA4
:1027580003F3094A1360002002F0EAFF0346FB7204
:10276800FB7A18461037BD4680BD00BF00200240E6
:1027780000100240185A00080000002080B489B0F8
:1027880000AF0023FB610023BB61464B9B6803F04D
:102798000C033B61434BDB6803F00303FB603B69BD
:1027A800002B05D03B690C2B21D1FB68012B1ED1D6
:1027B8003C4B1B6803F00803002B07D1394BD3F8B7
:1027C80094301B0A03F00F03FB6105E0354B1B68CF
:1027D8001B0903F00F03FB61334AFB6952F82330EE
:1027E800FB613B69002B0DD1FB69BB610AE03B69CA
:1027F800042B02D12D4BBB6104E03B69082B01D1AE
:102808002B4BBB613B690C2B45D1264BDB6803F096
:102818000303BB60234BDB681B0903F00703013389
:102828007B60BB68022B02D0032B0DD019E01F4A36
:102838007B68B2FBF3F31B4AD268120A02F07F02EC
:1028480002FB03F37B6119E0194A7B68B2FBF3F3DF
:10285800144AD268120A02F07F0202FB03F37B617A
:102868000CE0FA697B68B2FBF3F30E4AD268120AED
:1028780002F07F0202FB03F37B6100BF094BDB68B8
:102888005B0E03F0030301335B003B607A693B682E
:10289800B2FBF3F3BB61BB6918462437BD465DF84C
:1028A800047B704700100240305A00080024F400EE
:1028B80000127A0080B400AF034B1B681846BD466F
:1028C8005DF8047B704700BF0000002080B500AFB2
:1028D800FFF7F0FF0146064B9B681B0A03F007034E
:1028E800044AD35C03F01F0321FA03F3184680BDA2
:1028F80000100240285A000880B500AFFFF7DAFF41
:102908000146064B9B68DB0A03F00703044AD35CC5
:1029180003F01F0321FA03F3184680BD001002409C
:10292800285A000880B483B000AF786039607B68AB
:102938000F221A60124B9B6803F003027B685A60EF
:102948000F4B9B6803F0F0027B689A600C4B9B6806
:1029580003F4E0627B68DA60094B9B68DB0803F4E8
:10296800E0627B681A61074B1B6803F007023B684B
:102978001A6000BF0C37BD465DF8047B704700BF86
:10298800001002400020024080B400AF054A054B09
:102998001B6843F40023136000BFBD465DF8047B49
:1029A800704700BF0010024080B500AF074BDB69DD
:1029B80003F48073B3F5807F05D100F009F8034B69
:1029C8004FF480721A6200BF80BD00BF0010024041
:1029D80080B400AF00BFBD465DF8047B70470000BF
:1029E80080B586B000AF786000233B612A4B9B6DB1
:1029F80003F08053002B03D0FFF7D2F9786114E07D
:102A0800254A254B9B6D43F080539365224B9B6D64
:102A180003F08053FB60FB68FFF7C2F978611E4A38
:102A28001D4B9B6D23F0805393657B69B3F5007F45
:102A38000BD17B68802B19D97B68A02B02D9022384
:102A48003B6113E001233B6110E07B68802B02D9D6
:102A580003233B610AE07B68802B02D102233B61A0
:102A680004E07B68702B01D101233B610B490B4BC0
:102A78001B6823F007023B6913430B60074B1B6875
:102A880003F007023B699A4201D0012300E00023CA
:102A980018461837BD4680BD00100240002002408D
:102AA80080B586B000AF78600023FB740023BB7448
:102AB8007B681B6803F40063002B3FD07B685B6E68
:102AC800B3F5800F1CD0B3F5800F02D8002B0ED0C1
:102AD8001FE0B3F5000F03D0B3F5400F1CD018E08A
:102AE800854A854BDB6843F48033D36015E07B6807
:102AF80004330021184600F0B9FA0346FB740CE0D1
:102B08007B6820330021184600F0A0FB0346FB74C5
:102B180003E00123FB7400E000BFFB7C002B0BD11A
:102B28007549754BD3F8883023F440027B685B6E97
:102B38001343C1F8883001E0FB7CBB747B681B68D9
:102B480003F48053002B3FD07B689B6EB3F1807FEA
:102B58001CD0B3F1807F02D8002B0ED01FE0B3F158
:102B6800007F03D0B3F1407F1CD018E0624A624B6B
:102B7800DB6843F48033D36015E07B6804330021BD
:102B8800184600F073FA0346FB740CE07B682033A8
:102B98000021184600F05AFB0346FB7403E00123AA
:102BA800FB7400E000BFFB7C002B0BD15249524B59
:102BB800D3F8883023F040727B689B6E1343C1F8CA
:102BC800883001E0FB7CBB747B681B6803F400332E
:102BD800002B00F0A08000237B74474B9B6D03F013
:102BE8008053002B01D1012300E00023002B0DD0DE
:102BF800414A414B9B6D43F0805393653E4B9B6D1F
:102C080003F08053BB60BB6801237B743B4A3B4B9A
:102C18001B6843F480731360FDF7DEFDF86009E07C
:102C2800FDF7DAFD0246FB68D31A022B02D903230B
:102C3800FB7405E0314B1B6803F48073002BEFD065
:102C4800FB7C002B5CD12C4BD3F8903003F4407301
:102C58007B617B69002B1FD07B68D3F884207B695C
:102C68009A4219D0244BD3F8903023F440737B61F7
:102C7800214A214BD3F8903043F48033C2F8903086
:102C88001D4A1D4BD3F8903023F48033C2F890309E
:102C9800194A7B69C2F890307B6903F00103002B65
:102CA80016D0FDF799FDF8600BE0FDF795FD02469B
:102CB800FB68D31A41F28832934202D90323FB748A
:102CC80006E00D4BD3F8903003F00203002BECD054
:102CD800FB7C002B0CD10849074BD3F8903023F428
:102CE80040727B68D3F884301343C1F8903009E010
:102CF800FB7CBB7406E000BF00100240007000407F
:102D0800FB7CBB747B7C012B05D19E4A9D4B9B6D44
:102D180023F0805393657B681B6803F00103002B45
:102D28000AD09849974BD3F8883023F003027B6880
:102D38009B6B1343C1F888307B681B6803F0020360
:102D4800002B0AD08F498F4BD3F8883023F00C0220
:102D58007B68DB6B1343C1F888307B681B6803F022
:102D68000403002B0AD08749864BD3F8883023F018
:102D780030027B681B6C1343C1F888307B681B6882
:102D880003F00803002B0AD07E497E4BD3F8883025
:102D980023F0C0027B685B6C1343C1F888307B6802
:102DA8001B6803F01003002B0AD07649754BD3F843
:102DB800883023F440727B689B6C1343C1F88830D9
:102DC8007B681B6803F02003002B0AD06D496D4B0C
:102DD800D3F8883023F440627B68DB6C1343C1F876
:102DE80088307B681B6803F40073002B0AD06549A0
:102DF800644BD3F8883023F440227B68DB6D13439F
:102E0800C1F888307B681B6803F48063002B0AD004
:102E18005C495C4BD3F8883023F440127B681B6E06
:102E28001343C1F888307B681B6803F04003002B0C
:102E38000AD05449534BD3F8883023F440527B6866
:102E48001B6D1343C1F888307B681B6803F080034F
:102E5800002B0AD04B494B4BD3F8883023F440421F
:102E68007B685B6D1343C1F888307B681B6803F48B
:102E78008073002B0AD04349424BD3F8883023F49F
:102E880040327B689B6D1343C1F888307B681B68B0
:102E980003F40053002B28D03A493A4BD3F8883032
:102EA80023F040627B68DB6E1343C1F888307B688F
:102EB800DB6EB3F1006F06D1324A324BDB6843F464
:102EC8008013D36011E07B68DB6EB3F1806F0CD1A7
:102ED8007B6804330121184600F0C8F80346FB74E8
:102EE800FB7C002B01D0FB7CBB747B681B6803F464
:102EF8000023002B28D02349224BD3F8883023F015
:102F080040627B681B6F1343C1F888307B681B6F76
:102F1800B3F1006F06D11B4A1A4BDB6843F48013E8
:102F2800D36011E07B681B6FB3F1806F0CD17B68B5
:102F380004330121184600F099F80346FB74FB7C22
:102F4800002B01D0FB7CBB747B681B6803F48023D7
:102F5800002B2BD00B490B4BD3F8883023F0406261
:102F68007B685B6F1343C1F888307B685B6FB3F194
:102F7800006F09D1034A034BDB6843F48013D36025
:102F880014E000BF001002407B685B6FB3F1806FF4
:102F98000CD17B6804330121184600F067F803461A
:102FA800FB74FB7C002B01D0FB7CBB747B681B682B
:102FB80003F48043002B2FD02B492B4BD3F88830B8
:102FC80023F040527B689B6F1343C1F888307B68BD
:102FD8009B6FB3F1805F0DD17B68043302211846E3
:102FE80000F044F80346FB74FB7C002B14D0FB7CF8
:102FF800BB7411E07B689B6FB3F1005F0CD17B68F9
:1030080020330221184600F021F90346FB74FB7CAB
:10301800002B01D0FB7CBB747B681B6803F4004366
:10302800002B0AD01049104BD3F8883023F0804287
:103038007B68DB6F1343C1F888307B681B6803F437
:103048008033002B0BD00849074BD3F8883023F086
:1030580000427B68D3F880301343C1F88830BB7CCA
:1030680018461837BD4680BD0010024080B584B0B0
:1030780000AF786039600023FB73734BDB6803F0A3
:103088000303002B18D0704BDB6803F003027B6846
:103098001B689A420DD17B681B68002B09D06A4BCC
:1030A800DB681B0903F007035A1C7B685B689A42BC
:1030B80044D00123FB7341E07B681B68022B0CD0D2
:1030C800032B13D0012B20D15F4B1B6803F00203A5
:1030D800002B1DD10123FB731AE05B4B1B6803F423
:1030E8008063002B16D10123FB7313E0564B1B683A
:1030F80003F40033002B0FD1534B1B6803F48023D8
:10310800002B09D10123FB7306E00123FB7304E0C4
:1031180000BF02E000BF00E000BFFB7B002B0DD129
:103128004948494BDB6823F073027B6819687B6860
:103138005B68013B1B010B431343C360FB7B002B04
:103148007DD1414A404B1B6823F080631360FDF733
:1031580043FBB86009E0FDF73FFB0246BB68D31AA2
:10316800022B02D90323FB7305E0374B1B6803F0DE
:103178000063002BEFD1FB7B002B60D13B68002B59
:1031880011D13148304B1B6923F41F3323F44073AA
:103198007A68926811027A68D268120952040A435E
:1031A8001343036127E03B68012B12D12648264BC5
:1031B8001B6923F4C00323F4FE437A689268110262
:1031C8007A6812695208013A52050A4313430361A7
:1031D80011E01D481C4B1B6923F0C06323F4FE4318
:1031E8007A68926811027A6852695208013A52065E
:1031F8000A4313430361144A134B1B6843F080636B
:103208001360FDF7E9FAB86009E0FDF7E5FA024650
:10321800BB68D31A022B02D90323FB7305E00A4BC0
:103228001B6803F00063002BEFD0FB7B002B06D15B
:103238000549054B1A697B689B6913430B61FB7B46
:1032480018461037BD4680BD0010024080B584B0D6
:1032580000AF786039600023FB73684BDB6803F0CC
:103268000303002B18D0654BDB6803F003027B686F
:103278001B689A420DD17B681B68002B09D05F4BF5
:10328800DB681B0903F007035A1C7B685B689A42DA
:1032980044D00123FB7341E07B681B68022B0CD0F0
:1032A800032B13D0012B20D1544B1B6803F00203CE
:1032B800002B1DD10123FB731AE0504B1B6803F44C
:1032C8008063002B16D10123FB7313E04B4B1B6863
:1032D80003F40033002B0FD1484B1B6803F4802301
:1032E800002B09D10123FB7306E00123FB7304E0E3
:1032F80000BF02E000BF00E000BFFB7B002B0DD148
:103308003E483E4BDB6823F073027B6819687B6894
:103318005B68013B1B010B431343C360FB7B002B22
:1033280067D1364A354B1B6823F080531360FDF78D
:1033380053FAB86009E0FDF74FFA0246BB68D31AA2
:10334800022B02D90323FB7305E02C4B1B6803F007
:103358000053002BEFD1FB7B002B4AD13B68002B9D
:1033680011D12648254B5B6923F41F3323F440739E
:103378007A68926811027A68D268120952040A437C
:103388001343436111E01D481C4B5B6923F0C06384
:1033980023F4FE437A68926811027A681269520827
:1033A800013A52060A4313434361144A134B1B68FC
:1033B80043F080531360FDF70FFAB86009E0FDF79A
:1033C8000BFA0246BB68D31A022B02D90323FB73FC
:1033D80005E00A4B1B6803F00053002BEFD0FB7B82
:1033E800002B06D10549054B5A697B685B69134375
:1033F8004B61FB7B18461037BD4680BD001002406C
:1034080080B584B000AF78600123FB737B68002B24
:1034180000F092800023FB737B6893F82130DBB2C5
:10342800002B06D17B68002283F82020786802F000
:10343800A3F87B68022283F821207B681B68CA22D4
:103448005A627B681B6853225A62786800F09FF8BA
:103458000346002B0AD07B681B68FF225A627B68F0
:10346800042283F821200123FB7365E07B681A6836
:103478007B681B689B6823F4E00323F04003936098
:103488007B681B687A68126891687A6850687A68FD
:10349800126910437A68926902430A439A607B680A
:1034A8001B687A68D2681A617B681B687A68126838
:1034B80011697A68926812040A431A617B681B686A
:1034C8007A681268D26822F08002DA607B681B682A
:1034D8009B6803F02003002B0FD1786800F031F8C7
:1034E8000346002B09D07B681B68FF225A627B6861
:1034F800042283F821200123FB73FB7B002B1BD1C3
:103508007B681B687A681268D26C22F00302DA645E
:103518007B681B687A681268D16C7A68D0697A68A7
:10352800526902430A43DA647B681B68FF225A62C5
:103538007B68012283F82120FB7B18461037BD46A3
:1035480080BD80B584B000AF78607B681B687A68FE
:103558001268D26822F0A002DA60FDF73DF9F8603F
:1035680009E0FDF739F90246FB68D31AB3F57A7F0B
:1035780001D9032307E07B681B68DB6803F020039D
:10358800002BEED0002318461037BD4680BD80B50D
:1035980084B000AF78607B681B68DB6803F0400389
:1035A800002B19D17B681B684FF0FF32DA60FDF7FA
:1035B80013F9F86009E0FDF70FF90246FB68D31A22
:1035C800B3F57A7F01D9032307E07B681B68DB68C2
:1035D80003F04003002BEED0002318461037BD46F9
:1035E80080BD80B582B000AF78607B68002B01D1C8
:1035F80001231DE07B6893F83D30DBB2002B06D138
:103608007B68002283F83C20786801F0D1FF7B6852
:10361800022283F83D207B681A687B6804331946C8
:10362800104600F047FA7B68012283F83D2000230A
:1036380018460837BD4680BD80B483B000AF7860B7
:103648007B681B687A681268D26842F00102DA6007
:103658007B681B689A680D4B1340062B0FD07B685C
:103668001B689A68094B1340B3F5803F07D07B6805
:103678001B687A681268126842F001021A60002317
:1036880018460C37BD465DF8047B704707000100FB
:1036980080B582B000AF78607B681B681B6903F057
:1036A8000203022B22D17B681B68DB6803F002034C
:1036B800022B1BD17B681B686FF002021A617B68C2
:1036C80001221A777B681B689B6903F00303002BB0
:1036D80003D0786800F0D0F905E0786800F0C2F906
:1036E800786800F0D3F97B6800221A777B681B683A
:1036F8001B6903F00403042B22D17B681B68DB6879
:1037080003F00403042B1BD17B681B686FF00402D1
:103718001A617B6802221A777B681B689B6903F42D
:103728004073002B03D0786800F0A6F905E07868AC
:1037380000F098F9786800F0A9F97B6800221A77F8
:103748007B681B681B6903F00803082B22D17B6880
:103758001B68DB6803F00803082B1BD17B681B6818
:103768006FF008021A617B6804221A777B681B686D
:10377800DB6903F00303002B03D0786800F07CF9C1
:1037880005E0786800F06EF9786800F07FF97B68EA
:1037980000221A777B681B681B6903F01003102B43
:1037A80022D17B681B68DB6803F01003102B1BD148
:1037B8007B681B686FF010021A617B6808221A7711
:1037C8007B681B68DB6903F44073002B03D07868BF
:1037D80000F052F905E0786800F044F9786800F0E4
:1037E80055F97B6800221A777B681B681B6903F010
:1037F8000103012B0ED17B681B68DB6803F0010312
:10380800012B07D17B681B686FF001021A61786889
:1038180001F020FE7B681B681B6903F08003802B86
:103828000ED17B681B68DB6803F08003802B07D10F
:103838007B681B686FF080021A61786800F0D4FA20
:103848007B681B681B6903F48073B3F5807F0ED116
:103858007B681B68DB6803F08003802B07D17B68DB
:103868001B686FF480721A61786800F0C7FA7B6889
:103878001B681B6903F04003402B0ED17B681B6853
:10388800DB6803F04003402B07D17B681B686FF0AF
:1038980040021A61786800F003F97B681B681B69AD
:1038A80003F02003202B0ED17B681B68DB6803F034
:1038B8002003202B07D17B681B686FF020021A6158
:1038C800786800F087FA00BF0837BD4680BD80B52C
:1038D80084B000AF786039607B6893F83C30012B86
:1038E80001D10223BAE07B68012283F83C207B687F
:1038F800022283F83D207B681B689B68FB60FB689D
:1039080023F4803323F07703FB60FB6823F47F43C1
:10391800FB607B681B68FA689A603B681B68402BF1
:103928007AD0402B0DD8102B00F08680102B03D8AE
:10393800002B00F0818088E0202B7DD0302B7BD0BD
:1039480083E0702B18D0702B04D8502B44D0602BF8
:1039580052D07AE0B3F5805F03D0B3F5005F28D08A
:1039680073E07B681A687B681B689B6823F4803364
:1039780023F00703936068E07B6818683B689968E0
:103988003B685A683B68DB6800F0A8F97B681B68ED
:103998009B68FB60FB6823F4803323F07703FB60AC
:1039A800FB6843F07703FB607B681B68FA689A60E2
:1039B8004BE07B6818683B6899683B685A683B68C5
:1039C800DB6800F08BF97B681B687A68126892687C
:1039D80042F480429A6038E07B6818683B6859680E
:1039E8003B68DB681A4600F0FFF87B681B685021CB
:1039F800184600F058F928E07B6818683B68596851
:103A08003B68DB681A4600F01EF97B681B6860217A
:103A1800184600F048F918E07B6818683B68596850
:103A28003B68DB681A4600F0DFF87B681B684021BA
:103A3800184600F038F908E07B681A683B681B688C
:103A48001946104600F02FF900BF7B68012283F861
:103A58003D207B68002283F83C200023184610375D
:103A6800BD4680BD80B483B000AF786000BF0C371E
:103A7800BD465DF8047B704780B483B000AF7860C2
:103A880000BF0C37BD465DF8047B704780B483B037
:103A980000AF786000BF0C37BD465DF8047B704707
:103AA80080B483B000AF786000BF0C37BD465DF8C6
:103AB800047B704780B485B000AF786039607B685C
:103AC8001B68FB607B68404A934213D07B68B3F164
:103AD800804F0FD07B683D4A93420BD07B683C4AAD
:103AE800934207D07B683B4A934203D07B683A4AAB
:103AF800934208D1FB6823F07003FB603B685B6866
:103B0800FA681343FB607B682F4A93421FD07B6897
:103B1800B3F1804F1BD07B682C4A934217D07B6847
:103B28002B4A934213D07B682A4A93420FD07B6872
:103B3800294A93420BD07B68284A934207D07B6876
:103B4800274A934203D07B68264A934208D1FB68F0
:103B580023F44073FB603B68DB68FA681343FB603F
:103B6800FB6823F080023B685B691343FB607B685A
:103B7800FA681A603B689A687B68DA623B681A6878
:103B88007B689A627B68104A93420FD07B68124A1E
:103B980093420BD07B68114A934207D07B68104A46
:103BA800934203D07B680F4A934203D13B681A695A
:103BB8007B681A637B6801225A6100BF1437BD46CF
:103BC8005DF8047B704700BF002C014000040040F2
:103BD80000080040000C0040003401400040014053
:103BE800004401400048014080B487B000AFF8604D
:103BF800B9607A60FB681B6A7B61FB681B6A23F00B
:103C08000102FB681A62FB689B693B613B6923F010
:103C1800F0033B617B681B013A6913433B617B6995
:103C280023F00A037B617A69BB6813437B61FB68F5
:103C38003A699A61FB687A691A6200BF1C37BD4607
:103C48005DF8047B704780B487B000AFF860B96056
:103C58007A60FB681B6A23F01002FB681A62FB6833
:103C68009B697B61FB681B6A3B617B6923F470433A
:103C78007B617B681B037A6913437B613B6923F093
:103C8800A0033B61BB681B013A6913433B61FB68B6
:103C98007A699A61FB683A691A6200BF1C37BD46A7
:103CA8005DF8047B704780B485B000AF78603960F8
:103CB8007B689B68FB60FB6823F07003FB603A68D5
:103CC800FB68134343F00703FB607B68FA689A605C
:103CD80000BF1437BD465DF8047B704780B487B0D9
:103CE80000AFF860B9607A603B60FB689B687B61F5
:103CF8007B6923F47F437B613B681A027B681A4324
:103D0800BB6813437A6913437B61FB687A699A60DD
:103D180000BF1C37BD465DF8047B704780B485B092
:103D280000AF786039607B6893F83C30012B01D193
:103D3800022345E07B68012283F83C207B6802224D
:103D480083F83D207B681B685B68FB607B681B68A9
:103D58009B68BB607B681B681C4A934204D07B68E5
:103D68001B681B4A934208D1FB6823F47003FB606D
:103D78003B685B68FA681343FB60FB6823F07003D9
:103D8800FB603B681B68FA681343FB60BB6823F061
:103D98008003BB603B689B68BA681343BB607B6861
:103DA8001B68FA685A607B681B68BA689A607B6807
:103DB800012283F83D207B68002283F83C20002301
:103DC80018461437BD465DF8047B7047002C014047
:103DD8000034014080B483B000AF786000BF0C3776
:103DE800BD465DF8047B704780B483B000AF78604F
:103DF80000BF0C37BD465DF8047B704780B483B0C4
:103E080000AF786000BF0C37BD465DF8047B704793
:103E180080B582B000AF78607B68002B01D10123A8
:103E280043E07B6893F87130DBB2002B06D17B68E6
:103E3800002283F87020786801F0DEFB7B6824227A
:103E480083F871207B681B687A681268126822F010
:103E580001021A60786800F02DF80346012B01D1A1
:103E6800012322E07B685B6A002B02D0786800F0AF
:103E78005FFB7B681B687A681268526822F490427C
:103E88005A607B681B687A681268926822F02A0276
:103E98009A607B681B687A681268126842F00102AF
:103EA8001A60786800F0E6FB034618460837BD46F6
:103EB80080BD00002DE9B04388B000AF78600023D2
:103EC800FB611023FB7600237B8100237B610023A9
:103ED800FB740023FB607B689A687B681B691A4344
:103EE8007B685B691A437B68DB691343FB617B680A
:103EF8001A687B681B681968AA4B0B40F9690B4361
:103F080013607B681B687A681268526822F4405113
:103F18007A68D2680A435A607B689B69FB617B6850
:103F28001B68A14A934204D07B681B6AFA69134351
:103F3800FB617B681B687A681268926822F43061BA
:103F4800FA690A439A607B681B68984A934221D1B0
:103F5800974BD3F8883003F00303032B16D801A23C
:103F680052F823F07D3F0008893F0008833F00088E
:103F78008F3F00080123FB76E4E00223FB76E1E0B3
:103F88000423FB76DEE00823FB76DBE01023FB76D8
:103F980000BFD7E07B681B68864A934234D1844BC4
:103FA800D3F8883003F00C030C2B29D801A252F85F
:103FB80023F000BFF13F000809400008094000084D
:103FC80009400008FD3F00080940000809400008B2
:103FD80009400008F73F00080940000809400008A8
:103FE80009400008034000080023FB76AAE00223EA
:103FF800FB76A7E00423FB76A4E00823FB76A1E088
:104008001023FB7600BF9DE07B681B686A4A9342D9
:1040180020D1674BD3F8883003F03003102B0FD032
:10402800102B02D8002B05D010E0202B05D0302B08
:1040380009D00BE00023FB7684E00223FB7681E0C5
:104048000423FB767EE00823FB767BE01023FB76D7
:1040580000BF77E07B681B68584A934220D1544BD5
:10406800D3F8883003F0C003402B0FD0402B02D880
:10407800002B05D010E0802B05D0C02B09D00BE019
:104088000023FB765EE00223FB765BE00423FB76ED
:1040980058E00823FB7655E01023FB7600BF51E07B
:1040A8007B681B68464A934224D1414BD3F8883039
:1040B80003F44073B3F5807F12D0B3F5807F02D844
:1040C800002B07D012E0B3F5007F06D0B3F5407F90
:1040D80009D00BE00023FB7634E00223FB7631E0C5
:1040E8000423FB762EE00823FB762BE01023FB76D7
:1040F80000BF27E07B681B682B4A934223D12C4BD7
:10410800D3F8883003F44063B3F5806F12D0B3F569
:10411800806F02D8002B07D012E0B3F5006F06D0ED
:10412800B3F5406F09D00BE00023FB760AE00223C9
:10413800FB7607E00423FB7604E00823FB7601E026
:104148001023FB7600BF7B681B68174A934240F038
:10415800EE80FB7E082B37D801A252F823F000BF6F
:104168008D410008D141000895410008D14100085F
:104178009B410008D1410008D1410008D141000805
:10418800A3410008FEF7A2FBF86020E00D4BFB609E
:104198001DE0FEF7F3FAF86019E04FF40043FB6006
:1041A80015E000BFF369FFEF0080004000380140D0
:1041B800001002400044004000480040004C00400D
:1041C800005000400024F4000123FB7400BFFB688A
:1041D800002B00F09E817B685A6813465B001A44E6
:1041E800FB689A4205D87B685B681A03FB689A42A9
:1041F80002D20123FB748CE1FB7E082B00F2848041
:1042080001A252F823F000BF35420008114300080C
:104218007542000811430008A9420008114300082C
:104228001143000811430008E7420008FEF74EFB5F
:1042380003464FF000044FEA042949EA13694FEA9C
:1042480003287B685B685B084FF0000418EB0300E9
:1042580049EB04017B685B684FF000041A4623466B
:10426800FCF70CF903460C467B6150E07B685B6801
:104278005B084FF00004AD494FF0000213EB010852
:1042880044EB0209404649467B685B684FF00004EE
:104298001A462346FCF7F2F803460C467B6136E0E3
:1042A800FEF76CFA03461A464FF000031D0245EA72
:1042B800126514027B685B685B081A464FF00003BE
:1042C800A01845EB03017B685B684FF000041A46B1
:1042D8002346FCF7D3F803460C467B6117E07B685E
:1042E8005B685B084FF0000413F5000044F100011F
:1042F8007B685B684FF000041A462346FCF7BEF85B
:1043080003460C467B6102E00123FB7400BF7B6916
:10431800B3F5407F08D37B69B3F5801F04D27B686F
:104328001B687A69DA60F4E00123FB74F1E07B68CA
:10433800DB69B3F5004F7ED1FB7E082B5BD801A269
:1043480052F823F0714300088F430008AD4300087A
:10435800FF430008C9430008FF430008FF43000863
:10436800FF430008E7430008FEF7B0FA03465A0087
:104378007B685B685B081A447B685B68B2FBF3F395
:104388009BB27B613AE0FEF7B7FA03465A007B68B6
:104398005B685B081A447B685B68B2FBF3F39BB20B
:1043A8007B612BE07B685B685B0803F1F47303F5C2
:1043B80090437A685268B3FBF2F39BB27B611DE0CD
:1043C800FEF7DCF903465A007B685B685B081A4411
:1043D8007B685B68B2FBF3F39BB27B610EE07B68A2
:1043E8005B685B0803F580327B685B68B2FBF3F3BC
:1043F8009BB27B6102E00123FB7400BF7B690F2B3A
:1044080016D97B69B3F5803F12D27B699BB223F042
:104418000F037B817B695B089BB203F007039AB2A9
:104428007B8913437B817B681B687A89DA6070E03B
:104438000123FB746DE0FB7E082B59D801A252F8CA
:1044480023F000BF714400088D440008A944000807
:10445800F9440008C5440008F9440008F944000874
:10446800F9440008E1440008FEF730FA02467B6888
:104478005B685B081A447B685B68B2FBF3F39BB22A
:104488007B6138E0FEF738FA02467B685B685B08B8
:104498001A447B685B68B2FBF3F39BB27B612AE04A
:1044A8007B685B685B0803F5740303F510537A684F
:1044B8005268B3FBF2F39BB27B611CE0FEF75EF936
:1044C80002467B685B685B081A447B685B68B2FBE2
:1044D800F3F39BB27B610EE07B685B685B0803F5D6
:1044E80000427B685B68B2FBF3F39BB27B6102E03E
:1044F8000123FB7400BF7B690F2B08D97B69B3F5D7
:10450800803F04D27B681B687A69DA6001E0012386
:10451800FB747B6800221A667B6800225A66FB7C63
:1045280018462037BD46BDE8B08300BF000024F41C
:1045380080B483B000AF78607B685B6A03F00103E6
:10454800002B0AD07B681B687A681268526822F4CC
:1045580000317A68926A0A435A607B685B6A03F0A2
:104568000203002B0AD07B681B687A6812685268BD
:1045780022F480317A68D26A0A435A607B685B6A9F
:1045880003F00403002B0AD07B681B687A68126862
:10459800526822F480217A68126B0A435A607B6859
:1045A8005B6A03F00803002B0AD07B681B687A68F3
:1045B8001268526822F400417A68526B0A435A60C2
:1045C8007B685B6A03F01003002B0AD07B681B68CA
:1045D8007A681268926822F480517A68926B0A436A
:1045E8009A607B685B6A03F02003002B0AD07B6823
:1045F8001B687A681268926822F400517A68D26B54
:104608000A439A607B685B6A03F04003002B1AD068
:104618007B681B687A681268526822F480117A688D
:10462800126C0A435A607B681B6CB3F5801F0AD171
:104638007B681B687A681268526822F4C0017A683D
:10464800526C0A435A607B685B6A03F08003002B54
:104658000AD07B681B687A681268526822F40021C5
:104668007A68926C0A435A6000BF0C37BD465DF801
:10467800047B704780B586B002AF78600023FB608A
:104688007B6800225A67FCF7A7F8F8607B681B680C
:104698001B6803F00803082B0ED16FF07E430093CC
:1046A800FB6800224FF40011786800F02CF80346EC
:1046B800002B01D0032322E07B681B681B6803F0F2
:1046C8000403042B0ED16FF07E430093FB68002295
:1046D8004FF48001786800F016F80346002B01D0EB
:1046E80003230CE07B68202283F871207B6820225A
:1046F80083F872207B68002283F870200023184614
:104708001037BD4680BD80B584B000AFF860B96091
:104718003B601346FB712CE0BB69B3F1FF3F28D027
:10472800BB69002B07D0FCF757F802463B68D21A42
:10473800BB699A421DD9FB681B68FA68126812683F
:1047480022F4D0721A60FB681B68FA6812689268D3
:1047580022F001029A60FB68202283F87120FB682E
:10476800202283F87220FB68002283F8702003233C
:104778000FE0FB681B68DA69BB681A40BB689A429D
:104788000CBF01230023DBB21A46FB799A42C3D03F
:10479800002318461037BD4680BD000080B588B09C
:1047A80004AF0346FB710023FB730F4B18686423A7
:1047B8000A22EC21FCF706FF0346002B0ED10A4B18
:1047C8001868FB799AB20A2302930123019307F12F
:1047D8000F0300930123EC21FCF7DAFDFB7B18465D
:1047E8001037BD4680BD00BF5800002080B588B096
:1047F80004AF0346FB710D4B1868FB799AB20A2384
:1048080002930223019307F10C0300930123EC2187
:10481800FCF7BEFD3B7B1B021AB27B7B1BB213432A
:104828001BB29BB218461037BD4680BD5800002009
:1048380080B584B000AF0346FB71FB791846FFF7DB
:10484800D5FF0346FB81FB891B0A9BB21AB2FB8981
:104858001B021BB213431BB29BB218461037BD464E
:1048680080BD000080B586B004AF03460A46FB71E0
:104878001346BB710D4B186864230A22EC21FCF720
:10488800A1FE0346002B0DD1084B1868FB799AB29C
:104898000A23029301230193BB1D00930123EC21FA
:1048A800FCF762FC00BF0837BD4680BD58000020F9
:1048B80080B582B000AF03460A46FB711346BB7150
:1048C800FB795B015AB2BB799B005BB203F01C0316
:1048D8005BB213435BB2DBB223F00303DBB21946CE
:1048E800F520FFF7BFFF00BF0837BD4680BD0000B9
:1048F80080B584B000AFF860B96011461A460B461F
:10490800FB711346BB71444AFB681360BB683A7E6F
:104918009A70BB689B78032B03D101210420FFF711
:10492800C7FFBB68BA791A70BB68FA795A7000BFBA
:10493800D020FFF733FF0346582BF9D18820FFF723
:1049480077FF03461A46BB68DA818A20FFF770FFB3
:1049580003461AB2BB681A828C20FFF769FF034628
:104968001AB2BB685A828E20FFF762FF03461A46C6
:10497800BB689A829020FFF75BFF03461AB2BB68B8
:10498800DA829220FFF754FF03461AB2BB681A83F3
:104998009420FFF74DFF03461AB2BB685A8396204E
:1049A800FFF746FF03461AB2BB689A839820FFF7C1
:1049B8003FFF03461AB2BB68DA839A20FFF738FF35
:1049C80003461AB2BB681A849C20FFF731FF0346DE
:1049D8001AB2BB689A849E20FFF72AFF03461AB2D0
:1049E800BB689A84BB795B015AB2FB799B005BB2C6
:1049F80003F01C035BB213435AB297F91830134300
:104A08005BB2DBB21946F420FFF72CFF00F08EF8FA
:104A180000BF1037BD4680BD5800002080B586B065
:104A280000AF3F4B9B78012B76D1F420FFF7B6FE01
:104A38000346BB75BB7D23F00303BB75BB7D43F009
:104A48000103BB75BB7D1946F420FFF70BFFBB7D47
:104A5800FB75FB7D03F00303FB75FB7D012B5BD12D
:104A680008E0F420FFF79AFE0346FB75FB7D03F090
:104A78000303FB75FB7D012BF3D0FA20FFF7B6FE8D
:104A880003463B613B691B023B61FC20FFF786FE46
:104A980003461A463B6913433B613B691B113B6163
:104AA8003B69DA101E4BDB895B00D31A1C4AB2F94A
:104AB800102002FB03F3DB12FB603B691B11184A51
:104AC800D2899B1A3A6912111549C989521A02FBEF
:104AD80003F31B13124AB2F9122002FB03F39B13D0
:104AE800BB60FA68BB6813440D4A93600C4B9A6824
:104AF80013469B00134480331B1207EE903AF8EEDE
:104B0800E77AC7ED017A97ED017ADFED066AC7EE1D
:104B1800267A054BC3ED017A00BF1837BD4680BD24
:104B2800300000200000C842240000202DE9B04FCA
:104B3800A4B000AFFFF772FFF720FFF757FE034658
:104B4800C7F88C30D7F88C301B02C7F88C30F920A6
:104B5800FFF724FE03461A46D7F88C301343C7F8EC
:104B68008C30D7F88C301B11C7F88C30C04B9B6841
:104B78004FEAE374B3F5FA3344F1FF34C7E920345C
:104B8800D7F88420D7F8803003FB02F1D7F88420C7
:104B9800D7F8803003FB02F3CC18D7F88020D7F879
:104BA8008030A2FB030163181946B14BB3F91E30DC
:104BB8001BB24FEAE37403FB01F500FB04F22A443D
:104BC800A0FB033422441446C7E91E34C7E91E3447
:104BD800A74BB3F91C301BB24FEAE374D7F8802017
:104BE80004FB02F1D7F8842003FB02F21144D7F842
:104BF8008020A2FB03340A1914464FEA444949EAC3
:104C0800D3394FEA4348D7E91E3413EB080344EB82
:104C18000904C7E91E34964BB3F91A301BB24FEAA0
:104C2800E374DB00FB600023BB60D7E91E34D7E9DF
:104C38000212C91842EB04020B461446C7E91E3497
:104C4800D7F88420D7F8803003FB02F1D7F8842006
:104C5800D7F8803003FB02F3CC18D7F88020D7F8B8
:104C68008030A2FB030163181946814BB3F9183051
:104C78001BB24FEAE37403FB01F500FB04F22A447C
:104C8800A0FB0334224414461A0ABA66BA6E42EAF2
:104C98000462BA662312FB66754BB3F916301BB271
:104CA8004FEAE374D7F8802004FB02F1D7F8842098
:104CB80003FB02F21144D7F88020A2FB03340A193F
:104CC80014464FEA043B4BEA135B4FEA033AD7E931
:104CD8001A3413EB0A0344EB0B04C7E92034D7E971
:104CE8002034191C44F50042614B9B8A9BB24FF05B
:104CF800000403FB02F501FB04F02844A1FB033484
:104D08000219144662103A60E3177B6097E81800AE
:104D1800C7E92034D7E92034234300F0FF80D7F8CF
:104D28008C30C3F580134FEAE374C7E91C34D7E924
:104D38001C34E2077A667A6E42EA53027A66DB0727
:104D48003B66D7E91E34D7E91812C91A62EB040288
:104D58000B461446DB1844EB04045B1844EB0204CE
:104D6800A001F863F86B40EA9360F8639801B863B0
:104D7800D7E90E8918EB030849EB040943464C466A
:104D8800A0007863786B40EA937078639B003B637C
:104D9800D7E90C345B1844EB0204A000F862F86A07
:104DA80040EA9370F8629B00BB62D7E90A3413EBC0
:104DB800010844EB020940464946D7E92023FBF79E
:104DC8000DFB03460C46C7E91C34294BB3F92430C4
:104DD80019B24FEAE172D7E91C34580BB865B86DBF
:104DE80040EAC440B8656313FB65D7E91645234616
:104DF80003FB02F02B4601FB03F303442046A1FB0F
:104E080000010B441946D7E91C345A0B3A653A6D30
:104E180042EAC4423A6563137B65D7E914452346E1
:104E280003FB01F22B4600FB03F31A442346A0FBC5
:104E38000334224414465A0E3A623A6A42EAC412C9
:104E48003A6263167B62D7E90834C7E92034084B15
:104E5800B3F922301BB24FEAE3743A6F04FB02F154
:104E68007A6F03FB02F20A44396FA1FB033401E0B5
:104E78003000002022441446DA0CBA61BA6942EACA
:104E88004432BA61E314FB61D7E90634C7E91E343A
:104E9800D7E91C12D7E92034C91842EB0402D7E934
:104EA8001E345B1844EB02041A0ABA64BA6C42EA6C
:104EB8000462BA642312FB641B4BB3F920301BB2A3
:104EC8004FEAE37422017A647A6C42EA13727A64D4
:104ED8001B013B64D7E91234D7E910125B1844EB85
:104EE8000204C7E91C34D7E91C34002B74F1000212
:104EF80002DAFF3344F100041A0A3A613A6942EAD5
:104F080004623A6123127B61D7E9043418462146CA
:104F1800FBF726FA0246054B1A6000E000BF9037FF
:104F2800BD46BDE8B08F00BF30000020240000203F
:104F380080B582B000AF0346FB8000F061FC04211D
:104F48000748FCF759F8FFF7F1FD04210448FCF77E
:104F580053F800F043FC00BF0837BD4680BD00BFD2
:104F68000004004880B500AF00F038FC01210020A3
:104F7800FCF7E2FE034A034B1B6943F0020313618B
:104F880000BF80BD00ED00E080B584B000AF786060
:104F98000B467B807B881A46920013441A46910080
:104FA8001A460B4613441B019BB2013BFB817868F0
:104FB800FEF742FB7B681B68FA89DA62FA897B682C
:104FC800DA6000BF1037BD4680BD000080B582B0F2
:104FD80002AFFBF7DBFB00F021F800F0ABF900F0C3
:104FE80083F900F0DBF800F099F800F04DF900F0D3
:104FF800FDF8012300930523042205490548FFF71E
:1050080077FC1E210448FFF7BFFFFFF7ABFFFEE761
:1050180030000020A40000205C01002080B5B8B05A
:1050280000AF07F19C0344220021184600F0DCFC85
:1050380007F1880300221A605A609A60DA601A61E0
:105048003B4688220021184600F0CEFC0923C7F809
:105058009C304FF48033C7F8A0300123C7F8B03034
:105068000223C7F8C4300323C7F8C8300123C7F8A0
:10507800CC301423C7F8D0300723C7F8D430022324
:10508800C7F8D8300223C7F8DC3007F19C0318466C
:10509800FCF732FF0346002B01D000F0F7F90F238D
:1050A800C7F888300323C7F88C300023C7F890303E
:1050B8000023C7F894300023C7F8983007F1880315
:1050C80004211846FDF77CFA0346002B01D000F0B6
:1050D800DDF9114B3B600023FB6300233B654FF474
:1050E8000073C7F884303B461846FDF7D9FC0346E1
:1050F800002B01D000F0CAF9FDF746FC4FF4007010
:10510800FCF75CFE0346002B01D000F0BFF900BF9E
:10511800E037BD4680BD00BF4200020080B500AF49
:105128001B4B1C4A1A601A4B1B4A5A60184B002228
:105138009A60174B0122DA60154B00221A61144B52
:1051480000225A61124B00229A61114B0022DA6147
:105158000F4B00221A620E48FBF778FF0346002B1C
:1051680001D000F093F900210948FCF74DFD0346F2
:10517800002B01D000F08AF900210548FCF78FFDCB
:105188000346002B01D000F081F900BF80BD00BFAD
:10519800A400002000540040EC9C901080B500AFA3
:1051A800104B114A1A600F4B00225A600D4B7F2298
:1051B8009A600C4BFF22DA600A4B00221A61094BF5
:1051C80000225A61074B00229A61064B0022DA61DD
:1051D8000448FEF715F90346002B01D000F056F9F4
:1051E80000BF80BD380100200028004080B588B08D
:1051F80000AF07F1100300221A605A609A60DA6063
:105208003B1D00221A605A609A601E4B4FF0804284
:105218001A601C4B42F20F725A601A4B00229A60B5
:10522800184B40F69F72DA60164B00221A61154B34
:1052380000229A611348FEF7D4F90346002B01D0E7
:1052480000F024F94FF480533B6107F1100319462D
:105258000C48FEF73CFB0346002B01D000F016F982
:1052680000237B600023FB603B1D19460548FEF7C1
:1052780055FD0346002B01D000F008F900BF203788
:10528800BD4680BD5C01002080B500AF144B154AB7
:105298001A60134B4FF416525A60114B00229A6051
:1052A8000F4B0022DA600E4B00221A610C4B0C22C5
:1052B8005A610B4B00229A61094B0022DA61084BB4
:1052C80000221A62064B00225A620548FEF7A0FD2A
:1052D8000346002B01D000F0D9F800BF80BD00BF05
:1052E8009C0100200044004080B582B000AF104A05
:1052F8000F4B9B6C43F0010393640D4B9B6C03F0C5
:1053080001037B607B68002200211020FBF722FB51
:105318001020FBF73BFB002200211120FBF71AFBB2
:105328001120FBF733FB00BF0837BD4680BD00BF27
:105338000010024080B58AB000AF07F114030022C4
:105348001A605A609A60DA601A613E4A3D4BDB6C1B
:1053580043F00403D3643B4BDB6C03F004033B6171
:105368003B69384A374BDB6C43F08003D364354BD9
:10537800DB6C03F08003FB60FB68324A314BDB6C6B
:1053880043F00103D3642F4BDB6C03F00103BB60D4
:10539800BB682C4A2B4BDB6C43F00203D364294BCC
:1053A800DB6C03F002037B607B68264A254BDB6CD1
:1053B80043F01003D364234BDB6C03F010033B6012
:1053C8003B68002204212048FBF7FEFD00224FF431
:1053D80080711E48FBF7F8FD01237B611C4BBB6104
:1053E8000023FB6107F1140319464FF09040FBF7C7
:1053F80043FC04237B610123BB610023FB61002381
:105408003B6207F1140319460F48FBF735FC4FF4CC
:1054180080737B610123BB610023FB6100233B6236
:1054280007F1140319460948FBF726FC002200215E
:105438000620FBF78FFA0620FBF7A8FA00BF2837EB
:10544800BD4680BD0010024000040048001000481E
:105458000000111080B582B000AF78607B681B68CF
:10546800B3F1804F05D100F0CBF9FFF75FFB00F0F7
:10547800B5F97B681B68044A934201D1FBF79EF992
:1054880000BF0837BD4680BD002C014080B400AF86
:1054980000BFBD465DF8047B7047000080B582B050
:1054A80000AF124A114B1B6E43F0010313660F4BFA
:1054B8001B6E03F001037B607B680C4A0B4B9B6DF2
:1054C80043F080539365094B9B6D03F080533B6019
:1054D8003B68002200210520FBF73CFA0520FBF77A
:1054E80055FA00BF0837BD4680BD00BF0010024016
:1054F80080B58AB000AF786007F1140300221A6003
:105508005A609A60DA601A617B681B68174A93428E
:1055180027D1174A164BDB6C43F00203D364144BB4
:10552800DB6C03F002033B613B69C0237B61122300
:10553800BB610123FB6103233B6204237B6207F108
:10554800140319460B48FBF797FB094A084B9B6D58
:1055580043F400139365064B9B6D03F40013FB6043
:10556800FB6800BF2837BD4680BD00BF005400401F
:10557800001002400004004880B483B000AF786097
:105588007B681B68084A934207D1084A074BD3F83F
:10559800903043F40043C2F8903000BF0C37BD464A
:1055A8005DF8047B704700BF0028004000100240EF
:1055B80080B584B000AF78607B681B68B3F1804F1A
:1055C80013D10C4A0B4B9B6D43F001039365094BB8
:1055D8009B6D03F00103FB60FB68002200211C2087
:1055E800FBF7B8F91C20FBF7D1F900BF1037BD460F
:1055F80080BD00BF0010024080B58AB000AF78605F
:1056080007F1140300221A605A609A60DA601A617E
:105618007B681B68404A93427AD1404A3F4B9B6D56
:1056280043F4003393653D4B9B6D03F400333B61BA
:105638003B693A4A394BDB6C43F00103D364374B7F
:10564800DB6C03F00103FB60FB680C237B61022326
:10565800BB610023FB6103233B6207237B6207F1E5
:10566800140319464FF09040FBF706FB2C4B2D4ACC
:105678001A602B4B02225A60294B00229A60284B51
:105688000022DA60264B80221A61254B00225A61DB
:10569800234B00229A61224B0022DA61204B002220
:1056A8001A621F48FBF780F90346002B01D0FFF769
:1056B800EDFE7B681A4ADA66194A7B6893621A4BD0
:1056C8001A4A1A60184B02225A60174B10229A6025
:1056D800154B0022DA60144B80221A61124B00220B
:1056E8005A61114B00229A610F4B0022DA610E4B6E
:1056F80000221A620C48FBF757F90346002B01D029
:10570800FFF7C4FE7B68084A9A66074A7B6893627B
:1057180000BF2837BD4680BD00440040001002404D
:105728005C0000206C000240F00000208000024075
:1057380080B58CB000AF78600023FB620023BB62A9
:10574800002279681920FBF705F91920FBF71EF9E3
:105758001E4A1E4B1B6E43F4006313661B4B1B6EE5
:1057680003F40063FB60FB6807F1100207F1140300
:1057780011461846FDF7D6F8FDF7BEF8F862FB6A41
:10578800134AA2FB03239B0C013BBB62114B124A39
:105798001A60104B40F2E732DA600E4ABB6A536077
:1057A8000C4B00221A610B4B00229A600948FDF746
:1057B80018FF0346002B04D10648FDF73DFF0346BA
:1057C80000E0012318463037BD4680BD0010024076
:1057D80083DE1B4314020020002C014080B400AF7C
:1057E800064B1B68054A1268D26822F00102DA608B
:1057F80000BFBD465DF8047B704700BF140200205F
:1058080080B400AF064B1B68054A1268D26842F0A4
:105818000102DA6000BFBD465DF8047B704700BF37
:105828001402002080B500AFFDF7BEF800BF80BDB0
:1058380080B400AFFEE780B400AFFEE780B400AFED
:10584800FEE780B400AFFEE780B400AF00BFBD46FE
:105858005DF8047B704780B400AF00BFBD465DF8BB
:10586800047B704780B400AF00BFBD465DF8047B81
:10587800704780B400AF00BFBD465DF8047B704739
:1058880080B500AF0120FBF7C9FB00BF80BD000059
:1058980080B500AF0248FBF73FF900BF80BD00BFED
:1058A8005C00002080B500AF0248FBF735F900BF67
:1058B80080BD00BFF000002080B500AF0248FDF7B2
:1058C800E7FE00BF80BD00BF1402002080B500AF16
:1058D8000248FDF7DDFE00BF80BD00BF5C0100206F
:1058E80080B400AF174A174BD3F8883043F47003DD
:1058F800C2F88830144A144B1B6843F00103136044
:10590800114B00229A60104A0F4B1B6823F0A853D2
:1059180023F4102313600C4B4FF48052DA600A4AC8
:10592800094B1B6823F480231360074B00229A61FC
:10593800044B4FF000629A6000BFBD465DF8047BDF
:10594800704700BF00ED00E000100240DFF834D0DF
:10595800002103E00C4B5B58435004310B480C4BBF
:1059680042189A42F6D30B4A02E0002342F8043B5D
:10597800094B9A42F9D3FFF7B3FF00F011F8FFF78C
:1059880025FBFEE700800120705A00080000002077
:10599800040000200400002054020020FEE700005C
:1059A80070B50D4E0D4CA41BA4100025A54209D1BD
:1059B8000B4E0C4C00F020F8A41BA4100025A542A7
:1059C80005D170BD56F8253098470135EEE756F8F1
:1059D800253098470135F2E7685A0008685A0008E8
:1059E800685A00086C5A000802440346934200D1E2
:1059F800704703F8011BF9E7F8B500BFF8BC08BC0D
:105A08009E467047F8B500BFF8BC08BC9E46704774
:105A18000000000000000000010203040607080956
:105A28000000000001020304A0860100400D0300ED
:105A3800801A060000350C0040420F0080841E00CA
:105A480000093D0000127A000024F40000366E01BF
:085A58000048E801006CDC02CB
:085A600054AAFF7F01000000C1
:045A6800AD01000884
:045A6C0089010008A4
:045A700000093D00EC
:040000050800595541
:00000001FF
