:020000040800F2
:1000000000800120FD3300085D33000861330008E3
:100010006333000865330008673300080000000000
:10002000000000000000000000000000693300082C
:100030006B330008000000006D3300084D340008E9
:100040004D3400084D3400084D3400084D3400088C
:100050004D3400086F330008713300084D34000838
:100060004D3400084D3400084D3400084D3400086C
:100070004D3400084D3400084D3400084D3400085C
:1000800079330008853300084D3400084D340008EA
:100090004D3400084D3400084D3400084D3400083C
:1000A0004D340008913300084D3400084D340008E9
:1000B0004D3400084D3400084D3400089D330008CD
:1000C000A93300084D3400084D3400084D340008B1
:1000D0004D3400084D3400084D3400084D340008FC
:1000E0004D3400084D3400084D3400084D340008EC
:1000F0004D3400084D3400084D3400084D340008DC
:100100004D3400084D3400084D3400084D340008CB
:100110004D3400084D3400084D3400084D340008BB
:100120004D3400084D3400084D3400084D340008AB
:100130004D3400084D3400084D3400084D3400089B
:100140004D3400084D3400084D3400084D3400088B
:100150004D3400084D3400084D3400084D3400087B
:100160004D3400084D3400084D3400084D3400086B
:100170004D3400084D3400084D34000800000000E4
:080180004D3400084D34000865
:1001880010B5054C237833B9044B13B10448AFF3C9
:1001980000800123237010BD04000020000000002F
:1001A800A834000808B5034B1BB103490348AFF353
:1001B800008008BD0000000008000020A8340008E6
:1001C80053B94AB9002908BF00281CBF4FF0FF31B6
:1001D8004FF0FF3000F07AB9ADF1080C6DE904CEAC
:1001E80000F006F8DDF804E0DDE9022304B070470A
:1001F8002DE9F0478C460D460446089E002B51D148
:100208008A4217466DD9B2FA82FEBEF1000F0BD0B2
:10021800CEF1200C01FA0EF520FA0CFC02FA0EF7CA
:100228004CEA050C00FA0EF44FEA174A250CBCFB01
:10023800FAF81FFA87F90AFB18CC45EA0C4508FBBF
:1002480009F3AB420AD9ED1908F1FF3280F0238196
:10025800AB4240F22081A8F102083D44ED1AA4B255
:10026800B5FBFAF00AFB105544EA054400FB09F90E
:10027800A14509D9E41900F1FF3380F00A81A145AD
:1002880040F2078102383C44A4EB090440EA0840E4
:100298000021002E61D024FA0EF40023346073602C
:1002A800BDE8F0878B4207D9002E54D0002186E89C
:1002B80021000846BDE8F087B3FA83F1002940F031
:1002C8008E80AB4202D3824200F2FA80841A65EB38
:1002D80003050120AC46002E3FD086E81010BDE88B
:1002E800F08712B90127B7FBF2F7B7FA87FEBEF11C
:1002F800000F34D1EB1B3A0C1FFA87FC0121B3FB2A
:10030800F2F8250C02FB183345EA03450CFB08F309
:10031800AB4207D9ED1908F1FF3002D2AB4200F227
:10032800D1808046ED1AA3B2B5FBF2F002FB10555E
:1003380043EA05440CFB00FCA44507D9E41900F185
:10034800FF3302D2A44500F2B8801846A4EB0C048F
:1003580040EA08409DE731463046BDE8F087CEF1D7
:10036800200405FA0EF307FA0EF720FA04F83A0CFF
:1003780025FA04F448EA0308B4FBF2F14FEA1845F9
:1003880002FB11441FFA87FC45EA044501FB0CF304
:10039800AB4200FA0EF409D9ED1901F1FF3080F0F3
:1003A8008A80AB4240F2878002393D44EB1A1FFA3B
:1003B80088F5B3FBF2F002FB103345EA034500FB76
:1003C8000CF3AB4207D9ED1900F1FF386FD2AB42FD
:1003D8006DD902383D44EB1A40EA01418FE7C1F17B
:1003E800200722FA07F88B4005FA01F448EA0303CC
:1003F80020FA07FE4FEA134CFD404EEA040EB5FB07
:10040800FCF94FEA1E440CFB19551FFA83F844EA1D
:10041800054509FB08F4AC4202FA01F200FA01FAB8
:1004280008D9ED1809F1FF3043D2AC4241D9A9F1FE
:1004380002091D442D1B1FFA8EFEB5FBFCF00CFBB8
:1004480010554EEA054400FB08F8A04507D9E41802
:1004580000F1FF3529D2A04527D902381C4440EACB
:100468000940A4EB0804A0FB02894C45C6464D464A
:1004780015D312D056B1BAEB0E0364EB050404FA97
:1004880007F7CB401F43CC40376074600021BDE8BC
:10049800F0871846F8E69046E0E6C245EAD2B8EB9F
:1004A800020E69EB03050138E4E72846D7E7404622
:1004B80091E78146BEE7014678E702383C4445E7C4
:1004C800084608E7A8F102083D442BE7704700BF3B
:1004D80010B5032000F028F8002002F0FFFE0446C3
:1004E80018B902F01DFE204610BD0124FBE70000EC
:1004F800024A136801331360704700BF20000020D0
:10050800014B1868704700BF2000002038B504462A
:10051800FFF7F6FF631C054618BF0134FFF7F0FF2D
:10052800401B8442FAD838BD074AD36823F4E063F5
:100538001B041B0C43F0BF63000243F4003300F4B8
:10054800E0600343D360704700ED00E0174B30B51F
:10055800DC68C4F30224C4F10703251D042B28BF5B
:100568000423062D4FF0010505FA03F303F1FF33C9
:100578008CBF033C00241940A14005FA04F4013C57
:100588002240002842EA01024FEA0212AFBF00F1FE
:10059800604000F00F00064BD2B2A5BF00F56140E5
:1005A800D2B21A5480F8002330BD00BF00ED00E03D
:1005B80014ED00E04209012300F01F0003FA00F0E7
:1005C800014B43F82200704700E100E030B50028F5
:1005D8004ED00168274B99424FF0140440D8264A60
:1005E8000A44B2FBF4F292004264A3F207430364A4
:1005F800022380F825308468C36805690A682343A4
:100608002B4345692B4385692B43C5692B43056AF1
:1006180022F4FF4222F070022B431343B4F5804FBB
:100628000B6014D0026C154B9A420CBF1449154943
:10063800436C0A6803F01C030F249C4022EA04025E
:100648000A6042680C6802FA03F323430B60002334
:100658000122C36380F8243080F82520184630BD75
:10066800094B0B44B3FBF4F39B004364074BBEE711
:10067800012030BD07040240F8FFFDBF0000024022
:10068800A8000240A8040240F8FBFDBF0004024095
:1006980090F82520022A10B503D00422C263012055
:1006A80010BD0268046C1168836B21F00E011160A3
:1006B800116821F001011160426C012102F01C0255
:1006C80001FA02F26260002480F8251080F82440C4
:1006D80013B19847204610BD184610BD016C426CF6
:1006E800036870B402F01C020E681D68042494406C
:1006F80026420ED015F0040F0BD01A6892065EBF82
:100708001A6822F004021A60036B4C6073B370BC61
:10071800184702249440264212D015F0020F0FD039
:100728001A68950606D41A6822F00A021A6001238C
:1007380080F8253000234C6080F82430C36AE5E750
:1007480008249440344211D02C070FD51C6824F09B
:100758000E041C60012303FA02F24A60C36380F8A6
:100768002530002380F82430436BCFE770BC7047F6
:100778002DE9F04F85B00B68DFF8A881674C01932D
:100788000023019ADA4002D105B0BDE8F08F0126B6
:10079800019A9E4012EA060E00F0B1804A6822F0E3
:1007A8001007022F16D14FEAD30900EB890903F08D
:1007B800070AD9F820504FEA8A0A4FF00F0C0CFAB2
:1007C8000AFC25EA0C0C0D6905FA0AF545EA0C0540
:1007D800C9F820504FEA430C0325D0F800B005FAB9
:1007E8000CF5ED4302F0030A0BEA050B0AFA0CF9C3
:1007F800013F49EA0B09012FC0F8009011D887681A
:1008080005EA0709CF6807FA0CF747EA090787607E
:10081800476827EA0609C2F300179F4047EA090715
:100828004760BAF1030F07D1C76A27EA0606C2F381
:10083800C0079F403E43C662C66835408E6806FAC8
:100848000CF63543C560D50059D5D8F8605045F049
:100858000105C8F86050D8F8605023F0030606F187
:10086800804605F0010506F58036039503F0030C74
:10087800039DB5684FEA8C0C0F2707FA0CF7B0F107
:10088800904F25EA07073CD0254DA8423BD005F5F7
:100898008065A84239D005F58065A84237D005F5AE
:1008A8008065A84235D005F58065A84233D005F5A6
:1008B8008065A84214BF0725062505FA0CF53D43B7
:1008C800B56025686FEA0E06D70354BF35404EEA77
:1008D800050525606568970354BF35404EEA050550
:1008E8006560A568D70254BF35404EEA0505A56086
:1008F800E568920254BF35404EEA0505E5600133CC
:100908003FE70025D9E70125D7E70225D5E70325E5
:10091800D3E70425D1E70525CFE700BF0004014050
:1009280000040048001002400AB1816170478162EA
:100938007047704708B5044B5969014202D05861A5
:10094800FFF7F7FF08BD00BF0004014003689A697C
:10095800910744BF00229A629A69D2075EBF9A69DA
:1009680042F001029A61704730B5039C0568234341
:10097800640D04F4806444F07F7444F45834686867
:10098800C1F3090144F47F74194344F0030441EAB4
:10099800024120EA04042143696030BD11F00103DB
:1009A80007D090F8413003F02803282B0CBF4223CE
:1009B800F2238A0709D590F8412002F02802282A54
:1009C8000CBF43F0440343F0F4034A0701F011025B
:1009D80048BF43F0B80301F01201112A08BF43F0E1
:1009E8009003122901680A6808BF43F0600322EAED
:1009F80003030B6070472DE9F041069F04468846C3
:100A080016461D462268936938EA03030CBF012382
:100A18000023B34202D00020BDE8F0816B1CF2D065
:100A2800FFF76EFDC01B854201D3002DEAD1636C30
:100A380043F020036364202384F84130002384F8C2
:100A4800423084F840300120BDE8F081036870B579
:100A58000446986910F010000D46164616D170BD70
:100A6800691C14D0FFF74CFD801B854200D36DB97B
:100A7800636C43F020036364202384F8413000232F
:100A880084F8423084F84030012070BD23689969A9
:100A98008A06E5D510222025DA612046DD61FFF7B8
:100AA80055FF2268536823F0FF7323F48B3323F434
:100AB800FF7323F001035360636C43F00403636422
:100AC80084F84150DBE770B504460D4616462368A6
:100AD8009B699B0701D5002070BD324629462046F8
:100AE800FFF7B4FFA0B96A1CF1D0FFF709FD801B1E
:100AF800854201D3002DEAD1636C43F0200363647F
:100B0800202384F84130002384F8423084F84030B0
:100B1800012070BDF7B5099E1F46164B0093054688
:100B280014464FF08073FAB2FFF71EFF3246089959
:100B38002846FFF7C8FF10B1012003B0F0BD012F10
:100B48002B680CD1E4B29C62089B0096002280219D
:100B58002846FFF750FF003018BF0120EDE7220AB2
:100B68009A62089932462846FFF7ADFF0028E3D17C
:100B78002B68E7E700200080F7B5099E1F46164B53
:100B88000093054614460023FAB2FFF7EDFE3246FD
:100B980008992846FFF797FF10B1012003B0F0BD70
:100BA800012F2B680CD1E4B29C62089B00960022AE
:100BB80040212846FFF71FFF003018BF0120EDE74E
:100BC800220A9A62089932462846FFF77CFF0028D5
:100BD800E3D12B68E7E700BF0020008070B504462A
:100BE8000D46164623689B699B0601D5002070BDFB
:100BF800324629462046FFF729FF90B9FFF780FCC7
:100C0800801B854201D3002DECD1636C43F0200397
:100C18006364202384F84130002384F8423084F848
:100C28004030012070BD10B5044600284AD090F825
:100C3800413003F0FF021BB980F8402002F092FA1D
:100C4800242384F841302368E1681A6822F00102FD
:100C58001A60626822F070621A619A68012922F4A7
:100C680000429A60A26824D142F400429A605A680D
:100C7800616942F0007242F400425A60DA6822F474
:100C88000042DA6022690A43A16942EA0122DA6075
:100C9800216AE2690A431A601A6842F001021A607E
:100CA80000202023606484F84130206384F84200E7
:100CB80010BD42F4044202299A6004BF4FF4006256
:100CC8005A60D4E7012010BD2DE9F04F9B4690F8FB
:100CD800413085B0202B04460F460392BDF83CA056
:100CE800DDF8408040F0A5800E9B13B1BAF1000FEB
:100CF80006D14FF400736364012005B0BDE8F08F9E
:100D080090F84030012B00F09480012580F8405085
:100D1800FFF7F6FB1923009006462A464FF40041D8
:100D28002046FFF768FE81460028E5D1212384F894
:100D38004130402384F842300E9B606463626063F4
:100D4800A4F82AA00196CDF800805B46039A39469C
:100D58002046FFF7DFFE10B184F84090CCE7638DA2
:100D68009BB2FF2B55D9FF22228500904FF080734C
:100D780039462046FFF7F8FD324641462046FFF740
:100D8800A2FE0028B8D1636A226813F8011B916299
:100D98006362638D228D013B9BB26385638D013A4B
:100DA80092B29BB22285ABB1A2B90096434680218C
:100DB8002046FFF720FE00289ED1638D9BB2FF2BB3
:100DC8002FD9FF22228500904FF0807339462046A4
:100DD800FFF7CAFD638D9BB2002BCDD13246414649
:100DE8002046FFF7FBFE002886D123682021D96121
:100DF8005A6822F0FF7222F48B3222F4FF7222F03A
:100E080001025A6084F8411084F8400084F84200D6
:100E180073E7628D009092B222854FF00073D2B2D0
:100E2800A6E7628D009092B222854FF00073D2B28D
:100E3800CCE7022061E700002DE9F04F9B4690F8CF
:100E4800413085B0202B04460F460392BDF83CA0E4
:100E5800DDF8408040F0A9800E9B13B1BAF1000F75
:100E680006D14FF400736364012005B0BDE8F08F2C
:100E780090F84030012B00F09880012580F8405010
:100E8800FFF73EFB1923009006462A464FF400411F
:100E98002046FFF7B0FD81460028E5D1222384F8DB
:100EA8004130402384F842300E9B60646362606383
:100EB800A4F82AA00196CDF800805B46039A39462B
:100EC8002046FFF759FE10B184F84090CCE7638DB7
:100ED8009BB2FF2B364B58D9FF22009322854FF047
:100EE800807339462046FFF73FFD009643460022AF
:100EF80004212046FFF77FFD0028B5D12268636AE8
:100F0800526A1A70636A228D01336362638D013BF2
:100F18009BB26385638D013A92B29BB22285ABB1D5
:100F2800A2B90096434680212046FFF764FD0028B9
:100F38009AD1638D9BB2FF2B2FD9FF222285009077
:100F48004FF0807339462046FFF70EFD638D9BB244
:100F5800002BCAD1324641462046FFF73FFE002803
:100F680082D123682021D9615A6822F0FF7222F4C5
:100F78008B3222F4FF7222F001025A6084F8411089
:100F880084F8400084F842006FE7628D009392B2C3
:100F980022854FF00073D2B2A3E7628D009092B21F
:100FA80022854FF00073D2B2CCE702205DE700BF84
:100FB800002400802DE9FF471D460023039390F885
:100FC8004130202B044690467DD103689B6913F479
:100FD800004378D190F84020012A74D0012280F88B
:100FE8004020C1F30906242280F8412046F4205904
:100FF8004364E3682268012B06BF46F0007343F49C
:1010080000534B465360FFF77BFA074623689A69FB
:101018009B69C2F34012C3F3001302B96BB1236892
:101028009A69009712F010022B4624D120212046FD
:10103800FFF7E1FCA8B101201AE06B1CE6D0FFF72E
:101048005FFAC01B854201D3002DDFD1202384F82D
:101058004130636C43F020036364002384F840301C
:10106800E9E722682023D36184F8413084F84000FE
:1010780004B0BDE8F087002220212046FFF7BBFC22
:1010880002460028D7D1236810214FF0200AD961E1
:10109800C3F81CA0039941450ED1596841F4804119
:1010A8005960204600972B465146FFF7A4FC0028BC
:1010B800C1D12368C3F81CA0039B01330393039B8E
:1010C800984596D8C2E70220D2E70268436B916937
:1010D800126803B1184770477047704738B5002544
:1010E80080F8425090F84130292B0CD1282380F801
:1010F8004130212303630121FFF750FC80F8405061
:10110800FFF7EAFF38BD90F841302A2B0BD128238E
:1011180080F84130222303630221FFF73FFC80F867
:101128004050FFF7DAFF38BD7047F8B590F8413006
:1011380003F02803282B0446036834D19E69C1684C
:101148009D699A68DF682D0C0229C6F3004605F0F0
:10115800FE0520D1C2F3090285EAD21515F006056D
:101168000ED1816C01318164816C022920D1082162
:101178008564D96180F840503146FFF7D5FFF8BD46
:101188000421FFF70BFC002380F8403007F0FE0233
:1011980031462046F1E70421FFF700FC002380F8E0
:1011A80040302A46F4E70822DA61002380F840300C
:1011B800F8BD7047174B10B52022C36200230363A4
:1011C800436380F8412080F842304B07044612D52B
:1011D8000268436A526A1A70436A01334362038D94
:1011E8004BB1013B0385438D013B9BB24385436C67
:1011F80043F00403436420460721FFF7CFFB23682D
:101208001022DA61002384F840302046FFF7D1FF2E
:1012180010BD00BF0000FFFF7047704770B5324A2D
:1012280090F84130002580F84250C2624585426CF2
:10123800283B1143022B0446416422D80321FFF7BF
:10124800ADFB282380F84130284B0563636323688E
:1012580019681A6811F4804120D0A06B22F48042EA
:101268001A6000283ED0224B8363002384F8403064
:10127800FFF70EFA002835D0A06B836BBDE87040ED
:1012880018470721FFF78AFB90F84130602B1CBFF5
:10129800202380F8413000230363D7E712F400428B
:1012A8000ED01A68E06B22F400421A60D0B1104BDD
:1012B800836384F84010FFF7EBF998B1E06BDCE743
:1012C80094F84130602B08D1202384F8413084F809
:1012D80040202046FFF7A1FF70BD84F8402020463B
:1012E800FFF79AFF70BD00BF0000FFFFED13000875
:1012F8005D1500080368202270B51E68DA610822AF
:10130800DA610D4607210446FFF748FB03685A686F
:1013180042F400425A605A6822F0FF7222F48B327B
:1013280022F4FF7222F001025A60FFF70FFB7104EA
:1013380032D5836B1BB11B685B689BB263856B07F7
:101348000ED52268636A526A1A70636A013363624F
:10135800238D2BB1013B2385638D013B9BB26385B4
:10136800638D9BB21BB1636C43F004036364002379
:10137800236384F842306363636C8BB1616C2046ED
:10138800FFF74CFF94F84130282B28D129462046F6
:10139800BDE87040FFF70EBF3204D0D5C36BC9E774
:1013A800E26A12F5803F0AD00D4AE262202284F8F0
:1013B800412084F840302046FFF7FBFE70BD94F8CA
:1013C800412084F84030222A4FF0200284F841203E
:1013D800204602D1FFF781FE70BDFFF77DFE70BD8C
:1013E8000000FFFF70B5164690F84020C36A012A36
:1013F80004460D467CD0012280F84020CA0639D523
:10140800F20637D5428D92B232BB90F84120282A95
:1014180010D1B3F1007F0DD1FFF7CCFEAA0605D598
:10142800B30603D529462046FFF764FF002084F859
:10143800400070BD94F84120292A22684FF010011D
:10144800D161EBD113F5803FE8D02046FFF77EFA53
:101458002046FFF743FEE1E702681021D161426CA4
:1014680033F0807342F004024264D7D1416CFFF735
:10147800D5FED3E76A071AD5700718D5628D92B2E0
:101488006AB12168626A496A1170626A01326262ED
:10149800228D013A2285628D013A92B26285628D6F
:1014A80092B2002ABAD113F5803FD1D1B6E7290705
:1014B80005D5320703D52046FFF737FEAEE7A80764
:1014C800ACD5B107AAD5628D92B26AB1636A2268B7
:1014D80013F8011B91626362638D013B9BB26385C4
:1014E800238D013B238599E733F08073B0D095E7CE
:1014F800022070BD036899691A6810B4CC0508D534
:10150800140606D5446C44F0010444644FF4807416
:10151800DC614C0508D5140606D5446C44F0080473
:1015280044644FF48064DC61890508D5120606D549
:10153800426C42F0020242644FF40072DA61416C7C
:1015480011F00B0F03D05DF8044BFFF767BE5DF891
:10155800044B7047806A826B08B500239363C26BA3
:10156800936390F84130602B05D1202380F84130F7
:10157800FFF753FE08BDFFF74FFE08BD90F8412066
:10158800D2B2202A10B51DD190F84030012B19D0C5
:10159800242380F8413003681C6824F001041C608F
:1015A8001C6824F480541C601C6821431960196865
:1015B80041F001011960002380F8412080F8403093
:1015C800184610BD022010BD10B590F84140E4B295
:1015D800202C1CD190F84030012B18D0242380F8FF
:1015E800413003681A6822F001021A601A6822F46E
:1015F800706242EA012119601A6842F001021A6019
:10160800002380F8414080F84030184610BD022081
:1016180010BD0000024B186800F4C060704700BF9E
:1016280000700040174B1A68B0F5007F02F4C062E2
:101638001CD1B2F5007F15D01A6822F4C06242F4BA
:1016480000721A60104A116832224A430F49B2FBED
:10165800F1F2194601325869400500D522B94B69A3
:101668005B050DD400207047013AF4E7B2F5806FAE
:101678001FBF1A6822F4C06242F480621A60F1E760
:1016880003207047007000400000002040420F0017
:1016980037B51E4DAB6DDA00044618D5FFF7BAFF13
:1016A800B0F5007F23D1802C29D9A02C8CBF022033
:1016B8000120174A136823F00703034313601368D4
:1016C80003F00703181A18BF012003B030BDAB6D33
:1016D80043F08053AB65AB6D03F080530193019BDE
:1016E800FFF798FFAB6D23F08053AB65D8E7802CEC
:1016F80007D808D0A4F1700358425841D9E7002010
:10170800D7E70320D5E70220D3E700BF0010024047
:1017180000200240254B9A68D96812F00C0205D0C7
:101728000C2A15D101F00301012918D119682048A4
:10173800090755BFD3F894101968C1F30321C1F301
:10174800031150F8210082B30C2A09D000207047F9
:10175800042A29D0082A174818BF002070470020FB
:10176800D968DA6801F00301C2F30212022902F112
:10177800010205D0032912D0D968C1F3062103E07C
:10178800D9680D48C1F30621DB68B0FBF2F0C3F35A
:101798004163013348435B00B0FBF3F07047D968FD
:1017A8000448C1F30621EFE70348704700100240E0
:1017B800EC34000800127A000024F4002DE9F74305
:1017C800054618B9012003B0BDE8F083A54C0368AD
:1017D800A668E768DB0606F00C0607F003073CD5A9
:1017E8001EB10C2E63D1012F61D12368980702D551
:1017F800AB69002BE6D02368286A190756BFD4F8CE
:10180800943023681B0903F0F00383423AD2FFF7B0
:101818003FFF0028D6D1236843F0080323602368DC
:101828002A6A23F0F003134323606368EA6923F408
:101838007F4343EA02236360FFF76CFFA3688A4A89
:10184800C3F30313D35C03F01F03D840874B18601E
:10185800002001F043FD0028B5D12B68D8075DD4DE
:101868002B68990700F19C802B68180700F1D0803D
:101878002B68590700F1FC80AB6A002B40F06581AA
:101888000020A0E7236843F008032360236823F0BF
:10189800F003034323606368EA6923F47F4343EA60
:1018A80002236360FFF7F4FE0028C5D08AE7AB691E
:1018B8001BB3236843F001032360FEF721FE804633
:1018C80023689A0711D5236843F008032360236827
:1018D8002A6A23F0F003134323606368EA6923F458
:1018E8007F4343EA02236360B7E7FEF709FEA0EBF4
:1018F80008000228E4D9032065E7236823F00103E0
:101908002360FEF7FDFD804623689B07A5D5FEF7FB
:10191800F7FDA0EB08000228F6D9ECE7082E03D063
:101928000C2E08D1032F06D123689A0398D56B682B
:10193800002B95D146E76B68B3F5803F10D123683B
:1019480043F480332360FEF7DBFD804623689B0366
:1019580086D4FEF7D5FDA0EB08006428F6D9CAE7BF
:10196800B3F5A02F04D1236843F480232360E6E76E
:10197800226822F480322260226822F480222260C7
:10198800002BE0D1FEF7BCFD8046236898037FF565
:1019980067AFFEF7B5FDA0EB08006428F5D9AAE704
:1019A800042E03D00C2E10D1022F0ED12368590516
:1019B80003D5EB68002B3FF405AF63682A6923F071
:1019C800F85343EA026363604EE7EB687BB1236830
:1019D80043F480732360FEF793FD074623685A0596
:1019E800EBD4FEF78DFDC01B0228F7D983E72368E7
:1019F80023F480732360FEF783FD074623685B05A5
:101A08007FF532AFFEF77CFDC01B0228F6D972E7DE
:101A18006B699BB1D4F8943043F00103C4F8943057
:101A2800FEF76EFD0746D4F894309A073FF520AFCD
:101A3800FEF766FDC01B0228F5D95CE7D4F89430A0
:101A480023F00103C4F89430FEF75AFD0746D4F892
:101A580094309B077FF50CAFFEF752FDC01B0228A0
:101A6800F5D948E700100240D134000800000020F2
:101A7800A36DD80029D4A36D43F08053A365A36D4B
:101A880003F080530193019B4FF001085D4F3B68C1
:101A9800D9051DD5AB68012B2BD1D4F8903043F074
:101AA8000103C4F89030FEF72BFD41F28839074650
:101AB800D4F890309B0742D5B8F1000F3FF4DCAE64
:101AC800A36D23F08053A365D6E64FF00008DDE749
:101AD8003B6843F480733B60FEF712FD81463B6828
:101AE800DA05D7D4FEF70CFDA0EB09000228F6D9D9
:101AF80001E7052B06D1D4F8903043F00403C4F86D
:101B08009030CAE7D4F8902022F00102C4F890205F
:101B1800D4F8902022F00402C4F89020002BC2D1FF
:101B2800FEF7EEFC41F288390746D4F89030980762
:101B3800C2D5FEF7E5FCC01B4845F6D9DBE6FEF743
:101B4800DFFCC01B4845B3D9D5E60C2E3FF43AAEAE
:101B5800022B236823F08073236037D1FEF7D0FC73
:101B68000646236899012BD46A6BEB6A43EA022381
:101B78002A6B013A43EA0213AA6B120943EA424369
:101B8800EA6B5208013A43EA42532A6C5208013A76
:101B980043EA4263E360236843F080732360E368A9
:101BA80043F08073E360FEF7ABFC054623689A01B7
:101BB8003FF566AEFEF7A4FC401B0228F6D99AE66C
:101BC800FEF79EFC801B0228CBD994E6236813F00D
:101BD800205F02BFE36823F00303E360E36823F0B8
:101BE800887323F48033E360FEF78AFC0546236894
:101BF8009B017FF545AEFEF783FC401B0228F6D912
:101C080079E600BF007000402DE9F0410E46044619
:101C180010B90120BDE8F081404A136803F00703BA
:101C28008B4229D32368D90731D421688A075BD42A
:101C38003A4A136803F007039E425DD311F0040F7C
:101C4800374D64D10B0706D5AB68226923F460537E
:101C580043EAC203AB60FFF75DFDAB68314AC3F3EB
:101C68000313BDE8F041D35C03F01F03D8402E4BAB
:101C78001860002001F032BB136823F007030B4300
:101C88001360136803F007039942C2D1CAE7626878
:101C9800234D032A2B681BD113F0007FB9D0AB6802
:101CA80023F003031343AB60FEF72AFC41F28838A4
:101CB8000746AB68626803F00C03B3EB820FB4D03D
:101CC800FEF71EFCC01B4045F3D90320BDE8F08198
:101CD800022A02D113F4003FE0E712B913F0020F11
:101CE800DCE713F4806FD9E70D4AA068936823F006
:101CF800F003034393609BE7136823F00703334320
:101D08001360136803F007039E4282D196E7AB681D
:101D1800E26823F4E0631343AB6093E700200240DA
:101D280000100240D134000800000020054B064A8C
:101D38009B68C3F30223D35C044A106803F01F03B3
:101D4800D840704700100240E1340008000000202D
:101D5800054B064A9B68C3F3C223D35C044A106848
:101D680003F01F03D840704700100240E134000818
:101D7800000000200F2303600B4B9A6802F0030257
:101D880042609A6802F0F00282609A6802F4E062A7
:101D9800C2609B68DB0803F4E0630361034B1B68C4
:101DA80003F007030B607047001002400020024058
:101DB800024A136843F4002313607047001002407E
:101DC8007047000010B5054CE369DB0504D5FFF743
:101DD800F7FF4FF48073236210BD00BF001002406C
:101DE800F8B5454BDA6812F0030F05460E461C4657
:101DF80000682AD0DA6802F0030282423CD1002A45
:101E08003AD0DB686A68C3F302130133934233D1D3
:101E1800236823F080632360FEF772FB074623687C
:101E28001A0132D4AF68002E36D0012E50D1226963
:101E3800286922F4C002400822F4FE42013842EA2E
:101E4800072242EA4052226132E0022810D00328D9
:101E580014D0012810D11B689F0738D5E3686A6839
:101E680023F07303013A184340EA0210E060CFE719
:101E78001B6813F4806FF1D10120F8BD1A68910333
:101E8800ECD41B6813F4802FF5E7FEF739FBC01B71
:101E98000228C4D90320F8BD2169EB6821F41F3159
:101EA80021F4407141EA07211B0941EA43412161BC
:101EB800236843F080632360FEF722FB064623680D
:101EC8001B0113D52369AA69134323610020F8BDB8
:101ED8002369686923F0C063400823F4FE4301388E
:101EE80043EA072343EA40632361E1E7FEF708FB7F
:101EF800801B0228E3D9CDE700100240F8B53D4B1E
:101F0800DA6812F0030F05460E461C46006828D012
:101F1800DA6802F0030282423AD1002A38D0DB683C
:101F28006A68C3F302130133934231D1236823F063
:101F380080532360FEF7E4FA074623689A0030D4FA
:101F4800A868002E34D06369296923F0C063490862
:101F580023F4FE43013943EA002343EA4163636102
:101F680032E0022810D0032814D0012810D11B68B1
:101F78009F0738D5E3686A6823F07303013A18436A
:101F880040EA0210E060D1E71B6813F4806FF1D1DA
:101F98000120F8BD1A689103ECD41B6813F4802F54
:101FA800F5E7FEF7ADFAC01B0228C6D90320F8BD35
:101FB8006269EB6822F41F3222F4407242EA00227E
:101FC8001B0942EA43426261236843F0805323605D
:101FD800FEF796FA064623689B0005D563696A6989
:101FE800134363610020F8BDFEF78AFA801B0228BC
:101FF800F1D9DBE7001002402DE9F347066816F433
:102008000066044624D0416EB1F5800F2CD002D86A
:10201800C1B101261CE0B1F5000F0DD0B1F5400F9C
:10202800F7D14D4A616ED2F8883023F440030B4350
:10203800C2F8883000260BE0474AD36843F480335F
:10204800D360EEE70430FFF7CBFE06460028E8D061
:102058002368D80406D5A16EB1F1807F74D008D862
:10206800A9B10126354621E000212030FFF746FFBF
:10207800EBE7B1F1007F04D0B1F1407FF1D13546F3
:1020880009E0354AD36843F48033D360F7E7201D6D
:10209800FFF7A6FE0546002D5CD12F4AA16ED2F8A7
:1020A800883023F040730B43C2F8883023689903C3
:1020B80040F14F81284FBB6DDA0040F176814FF037
:1020C8000008DFF89890D9F8003043F48073C9F815
:1020D8000030FEF715FA8246D9F80030DB053FD507
:1020E800002D44D1D7F8903013F4407315D0D4F8AC
:1020F8008420934211D0D7F89030D7F8902042F43A
:102108008032C7F89020D7F8902023F4407322F447
:102118008032C7F89020C7F89030D80709D5FEF765
:10212800EFF941F288390546D7F89030990740F120
:102138000981D7F89030D4F8842023F440731343EE
:10214800C7F89030354612E0002104F12000FFF76F
:10215800D5FE9FE72E46A9E7001002400070004018
:10216800FEF7CEF9A0EB0A000228B5D90325B8F18D
:10217800000F03D0BB6D23F08053BB652368DA07DB
:1021880008D59049A06BD1F8882022F003020243B9
:10219800C1F888209F0708D58A49E06BD1F88820C4
:1021A80022F00C020243C1F888205E0708D5854951
:1021B800206CD1F8882022F030020243C1F8882030
:1021C800180708D57F49606CD1F8882022F0C00232
:1021D8000243C1F88820D90608D57A49A06CD1F8FD
:1021E800882022F440720243C1F888209A0608D554
:1021F8007449E06CD1F8882022F440620243C1F8A7
:1022080088209F0508D56F49E06DD1F8882022F411
:1022180040220243C1F888205E0508D56949206E2E
:10222800D1F8882022F440120243C1F888205806C9
:1022380008D56449206DD1F8882022F44052024321
:10224800C1F88820190608D55E49606DD1F8882044
:1022580022F440420243C1F88820DA0508D55949DA
:10226800A06DD1F8882022F440320243C1F88820BA
:102278009B040FD5534AE16ED2F8883023F04063AF
:102288000B43B1F1006FC2F8883064D1D36843F4CE
:102298008013D36023681F030FD54A4A216FD2F8F1
:1022A800883023F040630B43B1F1006FC2F88830E7
:1022B8005CD1D36843F48013D36023685E030FD5E1
:1022C800404A616FD2F8883023F040630B43B1F184
:1022D800006FC2F8883054D1D36843F48013D360B8
:1022E8002368580412D53749A26FD1F8883023F0F3
:1022F80040531343B2F1805FC1F888304CD10221BA
:10230800201DFFF76DFD002818BF0546226811043F
:1023180008D52C49E06FD1F8883023F08043034377
:10232800C1F88830D30309D5264AD4F88010D2F8EA
:10233800883023F000430B43C2F88830284602B0A7
:10234800BDE8F087FEF7DCF8401B48457FF6ECAEA9
:102358000CE7354612E7B1F1806F9BD10121201DB2
:10236800FFF73EFD002818BF054693E7B1F1806FDF
:10237800A3D10121201DFFF733FD002818BF054612
:102388009BE7B1F1806FABD10121201DFFF728FD3C
:10239800002818BF0546A3E7B2F1005FB6D10221B5
:1023A80004F12000FFF7AAFDADE7BB6D43F08053B1
:1023B800BB65BB6D03F080530193019B4FF001088F
:1023C8007FE600BF00100240026838B5D36823F0EA
:1023D800A003D3600446FEF793F805462368DB683C
:1023E8009B0601D5002038BDFEF78AF8401BB0F5E2
:1023F8007A7FF3D9032038BD38B50368DA68520606
:10240800044601D5002038BD4FF0FF32DA60FEF7F0
:1024180077F805462368DB685B06F3D4FEF770F8A7
:10242800401BB0F57A7FF5D9032038BD38B504468E
:10243800D8B190F8213003F0FF021BB980F82020B2
:1024480000F0D6FE022384F821302368CA225A629B
:1024580053225A622046FFF7CFFF2368054638B15A
:10246800FF225A62042384F821300125284638BD0A
:102478009A68206922F4E00222F040029A606268B9
:1024880099680243A06902430A439A60E2681A61A4
:102498001A69A16842EA01421A61DA6822F08002E8
:1024A800DA609B689B0605D42046FFF78DFF08B1CC
:1024B8002368D5E723686069DA6C22F00302DA64DE
:1024C800E269D96C02430A43DA64FF225A620123A3
:1024D80084F82130CAE7704703680A48DA6842F08E
:1024E8000102DA6099680140062908D09A6802401A
:1024F800B2F5803F1EBF1A6842F001021A60002040
:10250800704700BF07000100704770477047704769
:1025180003681A69910710B504460FD5DA6892075F
:102528000CD56FF002021A619B69012299070277A4
:1025380000F08580FFF7E9FF0023237723681A69F5
:10254800520710D5DA6850070DD56FF004021A61EA
:102558009B69022213F4407F2277204675D0FFF74B
:10256800D4FF0023237723681A6911070FD5DA6887
:1025780012070CD56FF008021A61DB6904229B0769
:102588002277204667D0FFF7C0FF00232377236810
:102598001A69D00610D5DA68D1060DD56FF0100289
:1025A8001A61DB69082213F4407F2277204658D04D
:1025B800FFF7ABFF0023237723681A69D20708D5F2
:1025C800DA68D00705D56FF001021A61204600F0DD
:1025D8009BFD23681A69110608D5DA68120605D525
:1025E8006FF080021A61204600F0C3F823681A6968
:1025F800D00508D5DA68110605D56FF480721A611E
:10260800204600F0B7F823681A69520608D5DA6838
:10261800500605D56FF040021A612046FFF777FF94
:1026280023681A69910622D5DA6892061FD56FF0D9
:10263800200220461A61BDE8104000F099B8FFF763
:1026480063FF2046FFF762FF76E7FFF75DFF20464E
:10265800FFF75CFF85E7FFF757FF2046FFF756FFB8
:1026680093E7FFF751FF2046FFF750FFA2E710BDA1
:10267800304A0368904212D0B0F1804F0FD0A2F5D3
:10268800943290420BD002F58062904207D002F556
:102698008062904203D002F59432904219D14A6880
:1026A80023F070031343234A90421DD0B0F1804FAA
:1026B8001AD0A2F59432904216D002F58062904268
:1026C80012D002F5806290420ED002F59432904208
:1026D8000AD0194A904207D002F58062904203D08E
:1026E80002F58062904203D1CA6823F44073134311
:1026F8004A6923F08003134303608B68C3620B6845
:1027080083620C4B98420FD003F5006398420BD0BC
:1027180003F54063984207D003F58063984203D0DD
:1027280003F58063984201D10B6903630123436178
:10273800704700BF002C01400040014010B504461E
:10274800A0B190F83D3003F0FF021BB980F83C209F
:10275800FFF7C1FE022384F83D302068211DFFF7F2
:1027680087FF012384F83D30002010BD012010BDF3
:1027780070477047704700000268C169F8B50446A1
:10278800836800691568034360690343BA480B43CB
:102798002840034313605368E06823F4405303431D
:1027A8005360B64BA0699A421CBF236A18439368CA
:1027B80023F4306303439360B14B9A4219D103F574
:1027C8005843B04AD3F8883003F00303B1F5004FFB
:1027D800D35C40F03881082B00F28F80DFE813F0DB
:1027E8001A01CA00F9008D0014018D008D008D00BA
:1027F8003600A54B9A4207D103F5E633A34AD3F82E
:10280800883003F00C03E1E7A14B9A4223D103F58A
:10281800E433D3F8883003F03003102B00F0F18054
:102828000BD8002B00F0F380B1F5004F4FF00102F8
:102838004FF0000300F0F880A8E0202B00F0C680DD
:10284800302BF1D1B1F5004F40F0B88060684308F3
:1028580003F58033C3E08F4B9A421ED103F5E23370
:10286800D3F8883003F0C003402B00F0BB800AD8AF
:102878007BB9824B9A4240F0CA80FFF757FA00238F
:10288800B0BB02463AE0802B00F09D80C02B00F0E0
:10289800B0807A4B9A42C7D12FE07F4B9A4211D130
:1028A80003F5E033D3F8883003F44073B3F5807F41
:1028B80000F09880DCD9B3F5007F00F08480B3F590
:1028C800407FE4E76D4B9A42AED103F5C833D3F8A5
:1028D800883003F44063B3F5806F00F08380C7D974
:1028E800B3F5006F6FD0B3F5406FD0E76B480223A4
:1028F800626802EB4201814205D901220023236666
:1029080063661046F8BDB0EB023FF6D8082B2ED808
:10291800DFE803F0052D1C2D242D2D2D2700FFF7B2
:1029280005FA62684FF4807156080027E1FB0067DA
:10293800002330463946FDF743FC0022584BA0F5EA
:1029480040719942D9D82368D860D7E755485508C7
:1029580000230021401941F10001ECE7FEF7DAFEFF
:10296800DFE750080021002310F50000F3E70122FB
:102978000020E3E7FFF7ECF94EE0FFF7D7F96268CC
:1029880000EB5203B3FBF2F39BB20022A3F1100059
:102998004FF6EF718842B0D82168CB60AEE7FFF7F9
:1029A800D7F9ECE76068430803F5740303F510539F
:1029B800B3FBF0F3E8E7FEF7ADFEE0E76068430835
:1029C80003F50043F4E72D4B9A428FD0B1F5004F41
:1029D800E8D16068430803F1F47303F59043B3FB4F
:1029E800F0F31FE0254B9A420BD1FEF793FE042328
:1029F80046E7224B9A427FF425AF4FF40040082364
:102A080076E7B1F5004FD6D1FEF784FE04E0B1F5C4
:102A1800004FB2D1FFF78AF961684A0802EB400318
:102A2800B3FBF1F39BB20022A3F110004FF6EF7154
:102A380088423FF662AF23F00F012068C3F34203D8
:102A48000B43C3605AE7082B3FF657AF01A252F871
:102A580023F000BF83290008A7290008AD29000832
:102A680003290008BF2900080329000803290008D2
:102A780003290008C5290008F369FFEF008000401A
:102A880000380140C034000800440040C434000845
:102A980000480040004C0040005000400024F40072
:102AA800FFFC0F00000024F4436ADA0710B506D5CE
:102AB8000168846A4A6822F4003222434A609C070B
:102AC80006D50168C46A4A6822F4803222434A6003
:102AD800590706D50168046B4A6822F4802222430C
:102AE8004A601A0706D50168446B4A6822F4004216
:102AF80022434A60DC0606D50168846B8A6822F4A2
:102B0800805222438A60990606D50168C46B8A6898
:102B180022F4005222438A605A060FD50168046CD9
:102B28004A6822F480122243B4F5801F4A6005D116
:102B38004A68446C22F4C00222434A601B0606D548
:102B48000268816C536823F400230B43536010BD63
:102B58002DE9F041069D04460F4616469846216821
:102B6800CA6937EA02030CBF01220022B24202D02E
:102B78000020BDE8F0816B1CF2D09DB923681A686B
:102B880022F4D0721A609A6822F001029A60202317
:102B980084F8713084F87230002384F87030032090
:102BA800BDE8F081FDF7ACFCA0EB08008542D6D269
:102BB800E4E72DE9F3411F4690F87130202B0446D5
:102BC8000D4690464AD1002946D0002A44D090F8B4
:102BD8007030012B42D0012380F870300023436706
:102BE800212380F87130FDF78BFCA4F8508006464D
:102BF800A4F85280B4F85220009792B2334652B9E2
:102C080040212046FFF7A4FF58B9202384F87130EB
:102C180084F8700006E0002280212046FFF798FF24
:102C280018B1032002B0BDE8F081A3682268B3F5AB
:102C3800805F0DD123695BB935F8023BC3F3080304
:102C48001385B4F85230013B9BB2A4F85230D1E757
:102C58002B7813850135F4E70120E3E70220E1E74B
:102C680073B5044600264667FDF74AFC23681B68CF
:102C78001A07054617D423681B685B070AD56FF047
:102C88007E43009300222B464FF480012046FFF735
:102C98005FFFA0B92023002084F8713084F8700009
:102CA80084F872300CE06FF07E430093324603469E
:102CB8004FF400112046FFF74BFF0028DBD003201C
:102CC80002B070BD10B5044660B390F8713003F0DF
:102CD800FF021BB980F8702000F09AFA22682423BA
:102CE80084F87130136823F0010313602046FFF75E
:102CF80043FD012816D0636A13B12046FFF7D4FEBE
:102D080023685A6822F490425A609A6822F02A028C
:102D18009A601A6842F0010220461A60BDE8104025
:102D2800FFF79EBF012010BD7FB50A230DF11702E2
:102D3800029300920123024605480193EC210068A2
:102D4800FEF77AF89DF8170007B05DF804FB00BF9E
:102D58002C0000207FB50A23029302230193024628
:102D680005AB08480093EC2101230068FEF764F8DE
:102D78009DF814009DF8153043EA002007B05DF86F
:102D880004FB00BF2C00002030B50D4C87B0054671
:102D98008DF8171064230A22EC212068FEF70AF93F
:102DA80058B90A230DF117020293012300920193E7
:102DB8002A46EC212068FDF787FF07B030BD00BF29
:102DC8002C000020F8B517462C4C2D4A10602268BC
:102DD800032B0E46937003D18421F520FFF7D4FF0F
:102DE800256888202F706E70FFF7B4FFE8818A206D
:102DF8002568FFF7AFFF28828C202568FFF7AAFF18
:102E080068828E202568FFF7A5FFA8829020256894
:102E1800FFF7A0FFE88292202568FFF79BFF288331
:102E280094202568FFF796FF688396202568FFF7AA
:102E380091FFA88398202568FFF78CFFE8839A20E4
:102E48002568FFF787FF28849C202568FFF782FF05
:102E5800A8849E202568FFF77DFF2368A8841A7838
:102E680099785B789B0003F01C0341EA42111943EF
:102E7800C9B2F420BDE8F840FFF786BF280000205B
:102E88002C00002030B5B9B014254422002105A833
:102E980000F0FEFA2A460021684600F0F9FA0021FF
:102EA800882216A800F0F4FA0923059301224FF4AA
:102EB800803306930A920223032411920DEB050036
:102EC800072213920F931094149315931295FEF7FB
:102ED80075FC0F2304218DE818006846002402942D
:102EE80003940494FEF790FE084B25942A9416A8A0
:102EF8004FF4007416933794FFF77EF8FEF758FFE7
:102F08002046FEF78FFB39B030BD00BF42000200FB
:102F180080B5724D724E8CB0FDF7DAFAFFF7B2FF4A
:102F28001422002107A800F0B3FAEB6C6D4843F0B7
:102F38000403EB64EB6C03F004030293029BEB6C59
:102F480043F08003EB64EB6C03F080030393039B73
:102F5800EB6C43F00103EB64EB6C03F001030493A7
:102F6800049BEB6C43F00203EB64EB6C03F002038D
:102F78000593059BEB6C43F01003EB64EB6C03F0DB
:102F88001003069300220421069BFDF7CDFC0022C6
:102F98004FF4807154480024FDF7C6FC0127534BB9
:102FA800089307A94FF0904007970994FDF7E0FBB5
:102FB800042307A94B480793089709940A94FDF737
:102FC800D7FB4FF4807307A94748079308970994DC
:102FD8000A94FDF7CDFB224621460620FDF7B6FAF6
:102FE8000620FDF7E7FAAB6C3B43AB64AB6C404D96
:102FF8003B402246214607931020079BFDF7A6FA7F
:103008001020FDF7D7FA214622461120FDF79EFA37
:103018001120FDF7CFFA3748374B046180E81800D4
:103028007F238360FF23C36044618461C461FFF729
:10303800FDF9324A324BB460304686E80C00F7603E
:1030480034617461B461F4613462FDF7ECFD2146CA
:103058003046FEF793FA21463046FEF7B5FA29497D
:10306800AC604FF4165385E80A0028460C236B61C0
:10307800EC602C61AC61EC612C626C62FFF722FEA3
:103088003B463A4603213046FFF79CFE2D238DF838
:103098000730D020FFF748FE8DF80500F420FFF731
:1030A80043FE0DF105018DF806000A230822284683
:1030B800FFF77FFD0DF106010A2308222846FFF7D6
:1030C80078FD0A2308220DF107012846FFF771FD54
:1030D8004FF47A70FDF71AFADBE700BF00100240E0
:1030E800780000200004004800100048000011107B
:1030F800300100200C01002000280040005400404E
:10310800EC9C9010004400400268034B9A4201D1A5
:10311800FDF7EEB9704700BF002C01407047000072
:103128000F4B07B51A6E42F001021A661A6E02F0CA
:1031380001020092009A9A6D42F080529A659B6D46
:10314800002203F08053019311460520019BFDF7EF
:10315800FDF90520FDF72EFA03B05DF804FB00BF6A
:103168000010024010B5044688B01422002103A8BC
:1031780000F08EF922681B4B9A4230D11A4C1B483A
:10318800E36C43F00203E364E36C03F0020301938E
:10319800019BC02303931223049301230593032364
:1031A800069303A904230793FDF7E2FAA36D43F4FA
:1031B8000013A365A36D002203F4001311460293C4
:1031C8001F20029BFDF7C2F91F20FDF7F3F900222B
:1031D80020201146FDF7BAF92020FDF7EBF908B0D9
:1031E80010BD00BF00540040001002400004004819
:1031F8000268054B9A4201BF044AD2F8903043F462
:103208000043C2F890307047002800400010024088
:1032180070B5054688B01422002103A800F038F9DB
:103228002A68294B9A424CD103F5E63302269A6D57
:10323800264C42F400329A659A6D02F400320192EB
:10324800019ADA6C42F00102DA64DB6C049603F04E
:1032580001030293029B0C230393032306934FF06D
:103268009040072303A90793FDF782FA184B8022A1
:1032780084E8480020460023A360E360226163617C
:10328800A361E3612362FDF7A1F908B1FFF746FFE7
:10329800104BEC66A562104C02264FF0100E84E825
:1032A8004840802200232046E36022616361A361D5
:1032B800E3612362FDF78AF908B1FFF72FFFAC66D7
:1032C800A56208B070BD00BF004400403000002077
:1032D8006C00024080000240C400002010B5014686
:1032E80088B000221920FDF731F91920FDF762F99D
:1032F800144B154C1A6E42F400621A661B6E03F4E6
:103308000063029301A903A8029BFEF733FDFEF7B1
:103318001FFD0E4B236040F2E733E3600C4BB0FB1C
:10332800F3F001380023606020462361A360FFF7B3
:1033380005FA20B92046FFF7CFF808B010BD0120E4
:10334800FBE700BF00100240A8010020002C01404C
:1033580040420F00FEF736BDFEE7FEE7FEE7FEE758
:1033680070477047704770470120FDF7E3BA0000C7
:103378000148FDF7B3B900BF300000200148FDF750
:10338800ADB900BFC40000200148FFF7C1B800BFB5
:10339800A80100200148FDF798BE00BF7800002072
:1033A8000148FEF7A7B800BF780000200F49D1F800
:1033B800883043F47003C1F888300D4B1A68002038
:1033C80042F001021A6098601A6822F0A85222F4AA
:1033D80010221A604FF48052DA601A6822F48022B0
:1033E8001A6098614FF000638B60704700ED00E051
:1033F80000100240DFF834D0002103E00C4B5B588A
:10340800435004310B480C4B42189A42F6D30B4AEE
:1034180002E0002342F8043B094B9A42F9D3FFF734
:10342800C5FF00F011F8FFF773FDFEE700800120EB
:103438002C350008000000200400002004000020B3
:10344800E8010020FEE7000070B50D4E0D4CA41BEE
:10345800A4100025A54209D10B4E0C4C00F020F811
:10346800A41BA4100025A54205D170BD56F825302F
:1034780098470135EEE756F8253098470135F2E7C9
:1034880024350008243500082435000828350008AC
:1034980002440346934200D1704703F8011BF9E741
:1034A800F8B500BFF8BC08BC9E467047F8B500BF29
:0834B800F8BC08BC9E467047F9
:1034C0000104020800101010041010100210101057
:1034D00008000000000000000001020304060708C5
:1034E000090000000001020304000000A0860100A2
:1034F000400D0300801A060000350C0040420F000A
:1035000080841E0000093D0000127A000024F400AF
:0C35100000366E010048E801006CDC028F
:08351C00DCCCFF7F0100000080
:04352400AD010008ED
:04352800890100080D
:04352C0000093D0055
:04000005080033FDBF
:00000001FF
