:020000040800F2
:1000000000800120753700084D3200085132000889
:100010005332000855320008573200080000000033
:10002000000000000000000000000000593200083D
:100030005B320008000000005D3200085F320008FB
:10004000C5370008C5370008C5370008C5370008A0
:10005000C5370008C537000863320008C5370008F7
:10006000C5370008C5370008C5370008C537000880
:10007000C5370008C5370008C5370008C537000870
:10008000C5370008C5370008C5370008C537000860
:10009000C5370008C5370008C5370008C537000850
:1000A000C5370008C5370008C5370008C537000840
:1000B000C5370008C5370008C5370008C537000830
:1000C000C5370008C5370008C5370008C537000820
:1000D000C5370008C5370008C5370008C537000810
:1000E000C5370008C5370008C5370008C537000800
:1000F000C5370008C5370008C5370008C5370008F0
:10010000C5370008C5370008C5370008C5370008DF
:10011000C5370008C5370008C5370008C5370008CF
:10012000C5370008C5370008C5370008C5370008BF
:10013000C5370008C5370008C5370008C5370008AF
:10014000C5370008C5370008C53700086932000800
:10015000C5370008C5370008C5370008C53700088F
:10016000C5370008C5370008C5370008C53700087F
:10017000C5370008C5370008C53700080000000073
:08018000C5370008C53700086F
:1001880010B5054C237833B9044B13B10448AFF3C9
:1001980000800123237010BD6801002000000000CA
:1001A8002038000808B5034B1BB103490348AFF3D7
:1001B800008008BD000000006C0100202038000805
:1001C80038B50A4B054618684FF47A73B0FBF3F05C
:1001D80000F08CF8044638B9024629464FF0FF3043
:1001E80000F044F8204638BD012038BD1001002039
:1001F80010B5032000F028F80020FFF7E1FF0446BF
:1002080018B902F0C3FF204610BD0124FBE7000027
:10021800024A136801331360704700BFA803002027
:10022800014B1868704700BFA803002038B5044682
:10023800FFF7F6FF631C054618BF0134FFF7F0FF10
:10024800401B8442FAD838BD074AD36823F4E063D8
:100258001B041B0C43F0BF63000243F4003300F49B
:10026800E0600343D360704700ED00E0174B30B502
:10027800DC68C4F30224C4F10703251D042B28BF3E
:100288000423062D4FF0010505FA03F303F1FF33AC
:100298008CBF033C00241940A14005FA04F4013C3A
:1002A8002240002842EA01024FEA0212AFBF00F1E1
:1002B800604000F00F00064BD2B2A5BF00F56140C8
:1002C800D2B21A5480F8002330BD00BF00ED00E020
:1002D80014ED00E04209012300F01F0003FA00F0CA
:1002E800014B43F82200704700E100E00138B0F10B
:1002F800807F0AD2064B074A5860F02182F8231003
:100308000020072298601A6070470120704700BFDC
:1003180010E000E000ED00E02DE9F04F85B00B683B
:10032800DFF8A881674C01930023019ADA4002D1D3
:1003380005B0BDE8F08F0126019A9E4012EA060E2C
:1003480000F0B1804A6822F01007022F16D14FEA58
:10035800D30900EB890903F0070AD9F820504FEABE
:100368008A0A4FF00F0C0CFA0AFC25EA0C0C0D69EE
:1003780005FA0AF545EA0C05C9F820504FEA430C7E
:100388000325D0F800B005FA0CF5ED4302F0030A96
:100398000BEA050B0AFA0CF9013F49EA0B09012F90
:1003A800C0F8009011D8876805EA0709CF6807FAEE
:1003B8000CF747EA09078760476827EA0609C2F386
:1003C80000179F4047EA09074760BAF1030F07D1B2
:1003D800C76A27EA0606C2F3C0079F403E43C662C3
:1003E800C66835408E6806FA0CF63543C560D500F8
:1003F80059D5D8F8605045F00105C8F86050D8F8CC
:10040800605023F0030606F1804605F0010506F565
:100418008036039503F0030C039DB5684FEA8C0CF6
:100428000F2707FA0CF7B0F1904F25EA07073CD0E1
:10043800254DA8423BD005F58065A84239D005F581
:100448008065A84237D005F58065A84235D005F506
:100458008065A84233D005F58065A84214BF0725FA
:10046800062505FA0CF53D43B56025686FEA0E06CA
:10047800D70354BF35404EEA0505256065689703E4
:1004880054BF35404EEA05056560A568D70254BFDC
:1004980035404EEA0505A560E568920254BF35402F
:1004A8004EEA0505E56001333FE70025D9E7012558
:1004B800D7E70225D5E70325D3E70425D1E70525A6
:1004C800CFE700BF000401400004004800100240CC
:1004D8000AB18161704781627047704708B5044B63
:1004E8005969014202D05861FFF7F7FF08BD00BF04
:1004F800000401402DE9F04104468AB0002874D078
:1005080090F8BD3303F0FF021BB980F8BC2302F05A
:100518002DFF2546032355F8100B84F8BD3301F051
:100528006EFC0FCD6E460FC60FCD0FC695E80300C3
:1005380086E8030004F1040898E80E00206801F03A
:1005480029FC0021206801F060FC00212246234696
:1005580004F110050126084683F83C10A3F8421060
:1005680001310F2983F83D6083F83F00586498648F
:10057800186503F11C03EFD100231F4682F8FC31F4
:1005880001330F2B82F8FD7182F8FF71C2F80472F3
:10059800C2F80872C2F8107202F11C02EED10FCD37
:1005A8006E460FC60FCD0FC695E8030086E8030018
:1005B80098E80E00206801F069FC012384F838707F
:1005C80084F8BD33636A012B02D1204600F02EFC6B
:1005D800A36A012B02D1204600F03BFC206801F001
:1005E8002FFF00200AB0BDE8F0810120FAE790F85B
:1005F800BC33012B10B504460CD0012380F8BC3362
:10060800006801F011FF206801F0F3FB002084F876
:10061800BC0310BD022010BD2DE9F04FD0F80090AA
:1006280085B004464846D9F8408001F044FF009060
:10063800002840F05481206801F00EFF002800F0E7
:100648004E81206801F008FF800748BF22682068B3
:1006580042BF536903F00203536101F0FDFE10F439
:10066800002B0BD0206801F0FBFE09F5306605462B
:10067800B2464FF0000B002D40F03481206801F0A5
:10068800EBFE47030CD5206801F0F2FE25460190E9
:1006980009F510684FF0000B019B002B40F06481B6
:1006A800206801F0D9FE002815DAD9F8043823F0BB
:1006B8000103C9F8043894F8F433012B40F0CF81D2
:1006C800002184F8F413204602F0B8FF2268536929
:1006D80003F000435361206801F0BEFE05050BD509
:1006E800D9F80838D80702D5204602F0A9FE2268B2
:1006F800536903F400635361206801F0ADFE010102
:1007080014D523685A6902F000625A6194F8F423F8
:10071800002A40F0A8815B6D0121C3F3830384F8AC
:10072800F413C4F8F833204602F088FF206801F07B
:1007380093FEC20434D509F500656B68206823F080
:1007480001036B60102101F077FB606809F5106305
:100758004FF67F31009A824240F08981EB6943F07D
:100768000113EB61236B002B00F09A81D5F88430DC
:1007780043F00B03C5F884306B6C43F00B036B64D8
:10078800D9F80038206823F4FE63C9F8003804F566
:10079800717101F0AFFE2268536903F4805353610D
:1007A800206801F059FE830420D5206801F087FEF7
:1007B8002268D36823F47053D3600323E360402393
:1007C800636100F0E5FEB34BB34A034493422368E8
:1007D80000F26F81DA6842F47052DA60204602F063
:1007E80022FE2268536903F400535361206801F024
:1007F80033FEC7062BD52268936923F01003936153
:10080800D9F82050C5F34343022B05F00F0740F0F9
:10081800A08147F6F0731D4214D01C2606FB07463C
:10082800C5F30A152A46D6F80812484601F086FD8F
:10083800D6F808322B44C6F80832D6F814321D44CC
:10084800C6F814522268936943F010039361206834
:1008580001F002FE060707D5204602F0E0FD2268F7
:10086800536903F008035361206801F0F5FDC502E0
:1008780009D55FFA8BF1204602F018FE2268536909
:1008880003F480135361206801F0E6FD800209D566
:100898005FFA8BF1204602F005FE2268536903F4E3
:1008A80000135361206801F0D7FD410007D52046A9
:1008B80002F000FE2268536903F080435361206808
:1008C80001F0CAFD42070AD523685D686B0702D5A7
:1008D800204602F0F3FD23685A6815435D6005B0B1
:1008E800BDE8F08FE9072ED55FFA8BF21146206834
:1008F800019201F0C5FDC20707460DD5674B019A65
:1009080001219845CAF8081029D1B1680B0420D5EF
:100918004FF40042CAF8082039070FD55F4B9845B5
:1009280006D1B268120444BF4FF40042CAF8082046
:10093800204602F05DFD0823CAF80830FB0644BFD4
:100948001023CAF808300BF1010B6D080AF1200AD0
:1009580091E6B168880644BF2021CAF808101146FC
:10096800204602F04BFDD7E7019BDE076ED55FFA04
:100978008BFA5146206801F08CFD0646F00710D529
:10098800D9F8343801200BF00F0200FA02F223EAFA
:100998000203C9F834385146C8F80800204602F066
:1009A80036FD310744BF0823C8F80830F20644BFB3
:1009B8001023C8F80830730644BF4023C8F808302D
:1009C800B70744BF0223C8F8083036063ED56B6D1A
:1009D8002E6DB3423AD8F61A6B6C226802929E4288
:1009E80028BF1E4602F51063033603EB4B13B60807
:1009F8000393039B2F6D9B699BB2B3426B6D23D905
:100A08009F4221D967B9029B012203F5006AD3F8F6
:100A1800343802FA0BF223EA0203CAF8343015E03C
:100A2800FF1A6B6CA96C02989F4228BF1F46BBB285
:100A3800524601F0ADFBAB6C3B44AB646B6DFE1CE6
:100A48001F44B6086F65D4E79F42DCD9019B5B0859
:100A58000BF1010B01931C3508F120081CE6204618
:100A680002F006FD32E6204602F0EAFC5EE69960F6
:100A78001A6822F400121A60C3F80812D3F8002288
:100A880022F40012C3F80022009A013200922033A7
:100A980060E600BF405327FFFF340C000A31544F73
:100AA8006B6943F00B036B612B6943F00B032B61FC
:100AB80066E62F4A2F4902448A4203D8DA6842F48C
:100AC80060528AE6A0F574022B49A2F510528A42B8
:100AD80003D8DA6842F450527FE6A0F183722749BE
:100AE800A2F5E7428A4203D8DA6842F4405274E633
:100AF800234A244902448A4203D8DA6842F430522D
:100B08006BE6214A214902448A4203D8DA6842F452
:100B1800205262E61E4A1F4902448A4203D8DA6814
:100B280042F4105259E6A0F1B7721B49A2F5585287
:100B38008A4203D8DA6842F400524EE6174A184946
:100B480002448A42DA6894BF42F4E05242F4C05246
:100B580043E6062B7FF476AE082204F57171484609
:100B68001C2601F0EBFB06FB0746C5F30A1564E6F5
:100B7800401E1BFF3F420F007F4F12001FD613007D
:100B880060B6E5FE5FE3160000D3CEFE3F771B009C
:100B9800C05BB3FEBF9121001F753800E05459FEB9
:100BA800DF9C410090F8BC23012A10B504460BD005
:100BB800012280F8BC2384F83810006801F024FC76
:100BC800002084F8BC0310BD022010BD70B5044697
:100BD80001F00F0011F0800F4FF01C06C5B206FBA4
:100BE800054115BF06FB054506FB05453C3101F5EA
:100BF800FE7115BF0126002685F83D6085F8FD6168
:100C08008A604A78CB70C0B2087002B1C880022BE3
:100C180004BF00230B7194F8BC33012B09D00123C6
:100C280084F8BC33206801F0CDF9002084F8BC03B7
:100C380070BD022070BD01F00F03DAB210B5044692
:100C48001C2011F0800F00FB024119BF3C3100FB52
:100C5800024200FB024201F5FE7115BF012000208F
:100C680082F83D0082F8FD010B7094F8BC33012B2B
:100C780009D0012384F8BC33206801F0E5F900208D
:100C880084F8BC0310BD022010BD38B501F00F0573
:100C98001C2404FB050104FB050401F5FE71C4F8DE
:100CA80010320023C4F80822C4F8143284F8FD3145
:100CB80084F8FC5100681DB901F0F8F9002038BD2E
:100CC80001F076FAFAE71C2301F00F0103FB01019A
:100CD800B1F81402704738B501F00F051C2404FB65
:100CE800050104FB05043C312365002363650123EA
:100CF800A26484F83D3084F83C5000681DB901F0C6
:100D0800D5F9002038BD01F053FAFAE738B5436841
:100D180001F00F059D4204462DD811F0800F4FF0C9
:100D28001C021ED002FB050102FB050301223C3315
:100D380081F83D2001229A701D7094F8BC139142ED
:100D48001BD084F8BC231946206801F005FB25B99F
:100D580004F57171206801F0CDFB002084F8BC0314
:100D680038BD02FB010302FB0101002203F5FE73FB
:100D780081F8FD21DEE7012038BD022038BD38B5F5
:100D8800436801F00F029A42044626D81C2311F04A
:100D9800800F03FB020119BF3C3103FB020301F57D
:100DA800FE7103FB024314BF012000204FF0000531
:100DB80014BF83F83D0083F8FD018D700A7094F824
:100DC800BC33012B0BD0012384F8BC33206801F01D
:100DD800F0FA84F8BC53284638BD012038BD0220FB
:100DE80038BD70B50468636A21B943EA0243A36257
:100DF800002070BDA06A4D1E03EB10430020461C66
:100E0800C0B2854206D83F3104EB810443EA02436D
:100E18006360EDE7403004EB8000406803EB10436B
:100E28003046ECE7036800205962704702680346C1
:100E38000121C0F8FC13002083F8F403936943F000
:100E480000639361536D43F0805343F0030353658C
:100E5800704702680123C0F80034936B43F40033F1
:100E68009363002070470000024B186800F4C060CC
:100E7800704700BF00700040174B1A68B0F5007F3C
:100E880002F4C0621CD1B2F5007F15D01A6822F4B2
:100E9800C06242F400721A60104A116832224A4352
:100EA8000F49B2FBF1F2194601325869400500D5E5
:100EB80022B94B695B050DD400207047013AF4E76D
:100EC800B2F5806F1FBF1A6822F4C06242F48062D4
:100ED8001A60F1E7032070470070004010010020FD
:100EE80040420F00024A536843F4806353607047DE
:100EF8000070004037B51E4DAB6DDA00044618D5BA
:100F0800FFF7B2FFB0F5007F23D1802C29D9A02CA0
:100F18008CBF02200120174A136823F007030343FC
:100F28001360136803F00703181A18BF012003B0F1
:100F380030BDAB6D43F08053AB65AB6D03F08053B0
:100F48000193019BFFF790FFAB6D23F08053AB65D6
:100F5800D8E7802C07D808D0A4F17003584258412C
:100F6800D9E70020D7E70320D5E70220D3E700BF61
:100F78000010024000200240254B9A68D96812F000
:100F88000C0205D00C2A15D101F00301012918D152
:100F980019682048090755BFD3F894101968C1F398
:100FA8000321C1F3031150F8210082B30C2A09D0A0
:100FB80000207047042A29D0082A174818BF0020A3
:100FC80070470020D968DA6801F00301C2F3021201
:100FD800022902F1010205D0032912D0D968C1F310
:100FE800062103E0D9680D48C1F30621DB68B0FB90
:100FF800F2F0C3F34163013348435B00B0FBF3F005
:101008007047D9680448C1F30621EFE703487047E1
:10101800001002405438000800127A000024F4003E
:101028002DE9F743054618B9012003B0BDE8F08360
:10103800A54C0368A668E768DB0606F00C0607F00F
:1010480003073CD51EB10C2E63D1012F61D1236853
:10105800980702D5AB69002BE6D02368286A1907E0
:1010680056BFD4F8943023681B0903F0F003834279
:101078003AD2FFF73FFF0028D6D1236843F0080390
:10108800236023682A6A23F0F0031343236063680C
:10109800EA6923F47F4343EA02236360FFF76CFFA6
:1010A800A3688A4AC3F30313D35C03F01F03D84031
:1010B800874B18600020FFF783F80028B5D12B680C
:1010C800D8075DD42B68990700F19C802B68180716
:1010D80000F1D0802B68590700F1FC80AB6A002B27
:1010E80040F065810020A0E7236843F008032360EF
:1010F800236823F0F003034323606368EA6923F459
:101108007F4343EA02236360FFF7F4FE0028C5D05B
:101118008AE7AB691BB3236843F001032360FFF739
:101128007FF8804623689A0711D5236843F008039F
:10113800236023682A6A23F0F0031343236063685B
:10114800EA6923F47F4343EA02236360B7E7FFF7C2
:1011580067F8A0EB08000228E4D9032065E72368B4
:1011680023F001032360FFF75BF8804623689B07A1
:10117800A5D5FFF755F8A0EB08000228F6D9ECE74B
:10118800082E03D00C2E08D1032F06D123689A030A
:1011980098D56B68002B95D146E76B68B3F5803F0F
:1011A80010D1236843F480332360FFF739F8804671
:1011B80023689B0386D4FFF733F8A0EB0800642864
:1011C800F6D9CAE7B3F5A02F04D1236843F48023E6
:1011D8002360E6E7226822F480322260226822F443
:1011E80080222260002BE0D1FFF71AF8804623689E
:1011F80098037FF567AFFFF713F8A0EB08006428A2
:10120800F5D9AAE7042E03D00C2E10D1022F0ED147
:101218002368590503D5EB68002B3FF405AF6368D5
:101228002A6923F0F85343EA026363604EE7EB68E8
:101238007BB1236843F480732360FEF7F1FF074610
:1012480023685A05EBD4FEF7EBFFC01B0228F7D939
:1012580083E7236823F480732360FEF7E1FF0746E2
:1012680023685B057FF532AFFEF7DAFFC01B022863
:10127800F6D972E76B699BB1D4F8943043F0010357
:10128800C4F89430FEF7CCFF0746D4F894309A0798
:101298003FF520AFFEF7C4FFC01B0228F5D95CE775
:1012A800D4F8943023F00103C4F89430FEF7B8FF63
:1012B8000746D4F894309B077FF50CAFFEF7B0FFD4
:1012C800C01B0228F5D948E7001002404238000840
:1012D80010010020A36DD80029D4A36D43F08053DA
:1012E800A365A36D03F080530193019B4FF00108A0
:1012F8005D4F3B68D9051DD5AB68012B2BD1D4F8C0
:10130800903043F00103C4F89030FEF789FF41F2B2
:1013180088390746D4F890309B0742D5B8F1000FBA
:101328003FF4DCAEA36D23F08053A365D6E64FF0FF
:101338000008DDE73B6843F480733B60FEF770FF0D
:1013480081463B68DA05D7D4FEF76AFFA0EB0900AF
:101358000228F6D901E7052B06D1D4F8903043F0DE
:101368000403C4F89030CAE7D4F8902022F00102B0
:10137800C4F89020D4F8902022F00402C4F89020F9
:10138800002BC2D1FEF74CFF41F288390746D4F84A
:1013980090309807C2D5FEF743FFC01B4845F6D9E1
:1013A800DBE6FEF73DFFC01B4845B3D9D5E60C2E5A
:1013B8003FF43AAE022B236823F08073236037D1C1
:1013C800FEF72EFF0646236899012BD46A6BEB6A59
:1013D80043EA02232A6B013A43EA0213AA6B120971
:1013E80043EA4243EA6B5208013A43EA42532A6C01
:1013F8005208013A43EA4263E360236843F080738A
:101408002360E36843F08073E360FEF709FF054655
:1014180023689A013FF566AEFEF702FF401B0228DB
:10142800F6D99AE6FEF7FCFE801B0228CBD994E693
:10143800236813F0205F02BFE36823F00303E3602F
:10144800E36823F0887323F48033E360FEF7E8FE53
:10145800054623689B017FF545AEFEF7E1FE401B7C
:101468000228F6D979E600BF007000402DE9F04166
:101478000E46044610B90120BDE8F081404A1368C1
:1014880003F007038B4229D32368D90731D4216895
:101498008A075BD43A4A136803F007039E425DD378
:1014A80011F0040F374D64D10B0706D5AB682269DC
:1014B80023F4605343EAC203AB60FFF75DFDAB68FA
:1014C800314AC3F30313BDE8F041D35C03F01F03B3
:1014D800D8402E4B18600020FEF772BE136823F028
:1014E80007030B431360136803F007039942C2D143
:1014F800CAE76268234D032A2B681BD113F0007FCB
:10150800B9D0AB6823F003031343AB60FEF788FE42
:1015180041F288380746AB68626803F00C03B3EB06
:10152800820FB4D0FEF77CFEC01B4045F3D90320E0
:10153800BDE8F081022A02D113F4003FE0E712B9B6
:1015480013F0020FDCE713F4806FD9E70D4AA068A7
:10155800936823F0F003034393609BE7136823F039
:10156800070333431360136803F007039E4282D1D5
:1015780096E7AB68E26823F4E0631343AB6093E754
:1015880000200240001002404238000810010020EC
:10159800014B1868704700BF10010020024A136809
:1015A80043F40023136070470010024070470000A6
:1015B80010B5054CE369DB0504D5FFF7F7FF4FF4D9
:1015C8008073236210BD00BF00100240F8B5454B80
:1015D800DA6812F0030F05460E461C4600682AD04A
:1015E800DA6802F0030282423CD1002A3AD0DB6872
:1015F8006A68C3F302130133934233D1236823F09B
:1016080080632360FEF70CFE074623681A0132D474
:10161800AF68002E36D0012E50D12269286922F4F5
:10162800C002400822F4FE42013842EA072242EA98
:101638004052226132E0022810D0032814D0012839
:1016480010D11B689F0738D5E3686A6823F07303D5
:10165800013A184340EA0210E060CFE71B6813F430
:10166800806FF1D10120F8BD1A689103ECD41B6892
:1016780013F4802FF5E7FEF7D3FDC01B0228C4D969
:101688000320F8BD2169EB6821F41F3121F4407172
:1016980041EA07211B0941EA43412161236843F0DC
:1016A80080632360FEF7BCFD064623681B0113D543
:1016B8002369AA69134323610020F8BD2369686977
:1016C80023F0C063400823F4FE43013843EA0723AC
:1016D80043EA40632361E1E7FEF7A2FD801B02288D
:1016E800E3D9CDE700100240F8B53D4BDA6812F0B7
:1016F800030F05460E461C46006828D0DA6802F03B
:10170800030282423AD1002A38D0DB686A68C3F300
:1017180002130133934231D1236823F080532360AD
:10172800FEF77EFD074623689A0030D4A868002E8D
:1017380034D06369296923F0C063490823F4FE4360
:10174800013943EA002343EA4163636132E0022836
:1017580010D0032814D0012810D11B689F0738D552
:10176800E3686A6823F07303013A184340EA0210F9
:10177800E060D1E71B6813F4806FF1D10120F8BD58
:101788001A689103ECD41B6813F4802FF5E7FEF771
:1017980047FDC01B0228C6D90320F8BD6269EB6863
:1017A80022F41F3222F4407242EA00221B0942EA64
:1017B80043426261236843F080532360FEF730FDA3
:1017C800064623689B0005D563696A69134363610C
:1017D8000020F8BDFEF724FD801B0228F1D9DBE7C5
:1017E800001002402DE9F347066816F40066044627
:1017F80024D0416EB1F5800F2CD002D8C1B101269A
:101808001CE0B1F5000F0DD0B1F5400FF7D14D4AEE
:10181800616ED2F8883023F440030B43C2F8883055
:1018280000260BE0474AD36843F48033D360EEE7E1
:101838000430FFF7CBFE06460028E8D02368D8041A
:1018480006D5A16EB1F1807F74D008D8A9B1012660
:10185800354621E000212030FFF746FFEBE7B1F1E4
:10186800007F04D0B1F1407FF1D1354609E0354A17
:10187800D36843F48033D360F7E7201DFFF7A6FE53
:101888000546002D5CD12F4AA16ED2F8883023F08E
:1018980040730B43C2F888302368990340F14F81A5
:1018A800284FBB6DDA0040F176814FF00008DFF871
:1018B8009890D9F8003043F48073C9F80030FEF7E7
:1018C800AFFC8246D9F80030DB053FD5002D44D166
:1018D800D7F8903013F4407315D0D4F8842093428D
:1018E80011D0D7F89030D7F8902042F48032C7F85A
:1018F8009020D7F8902023F4407322F48032C7F860
:101908009020C7F89030D80709D5FEF789FC41F236
:1019180088390546D7F89030990740F10981D7F8FA
:101928009030D4F8842023F440731343C7F89030E0
:10193800354612E0002104F12000FFF7D5FE9FE7AD
:101948002E46A9E70010024000700040FEF768FC30
:10195800A0EB0A000228B5D90325B8F1000F03D07F
:10196800BB6D23F08053BB652368DA0708D590491F
:10197800A06BD1F8882022F003020243C1F8882026
:101988009F0708D58A49E06BD1F8882022F00C021D
:101998000243C1F888205E0708D58549206CD1F834
:1019A800882022F030020243C1F88820180708D5A1
:1019B8007F49606CD1F8882022F0C0020243C1F848
:1019C8008820D90608D57A49A06CD1F8882022F455
:1019D80040720243C1F888209A0608D57449E06C21
:1019E800D1F8882022F440620243C1F888209F057C
:1019F80008D56F49E06DD1F8882022F440220243CF
:101A0800C1F888205E0508D56949206ED1F888207C
:101A180022F440120243C1F88820580608D56449C8
:101A2800206DD1F8882022F440520243C1F8882062
:101A3800190608D55E49606DD1F8882022F4404225
:101A48000243C1F88820DA0508D55949A06DD1F8B4
:101A5800882022F440320243C1F888209B040FD525
:101A6800534AE16ED2F8883023F040630B43B1F15A
:101A7800006FC2F8883064D1D36843F48013D36010
:101A880023681F030FD54A4A216FD2F8883023F004
:101A980040630B43B1F1006FC2F888305CD1D36862
:101AA80043F48013D36023685E030FD5404A616F07
:101AB800D2F8883023F040630B43B1F1006FC2F8CD
:101AC800883054D1D36843F48013D3602368580412
:101AD80012D53749A26FD1F8883023F04053134309
:101AE800B2F1805FC1F888304CD10221201DFFF788
:101AF8006DFD002818BF05462268110408D52C4939
:101B0800E06FD1F8883023F080430343C1F8883070
:101B1800D30309D5264AD4F88010D2F8883023F0A8
:101B280000430B43C2F88830284602B0BDE8F0876E
:101B3800FEF776FB401B48457FF6ECAE0CE73546D2
:101B480012E7B1F1806F9BD10121201DFFF73EFD07
:101B5800002818BF054693E7B1F1806FA3D1012192
:101B6800201DFFF733FD002818BF05469BE7B1F19C
:101B7800806FABD10121201DFFF728FD002818BF79
:101B88000546A3E7B2F1005FB6D1022104F12000B7
:101B9800FFF7AAFDADE7BB6D43F08053BB65BB6D96
:101BA80003F080530193019B4FF001087FE600BFCB
:101BB80000100240026838B5D36823F0A003D36050
:101BC8000446FEF72DFB05462368DB689B0601D516
:101BD800002038BDFEF724FB401BB0F57A7FF3D90F
:101BE800032038BD38B50368DA685206044601D5C3
:101BF800002038BD4FF0FF32DA60FEF711FB0546D2
:101C08002368DB685B06F3D4FEF70AFB401BB0F5DC
:101C18007A7FF5D9032038BD38B50446D8B190F895
:101C2800213003F0FF021BB980F8202001F0C6FA2A
:101C3800022384F821302368CA225A6253225A6246
:101C48002046FFF7CFFF2368054638B1FF225A62C6
:101C5800042384F821300125284638BD9A68206974
:101C680022F4E00222F040029A6062689968024316
:101C7800A06902430A439A60E2681A611A69A16876
:101C880042EA01421A61DA6822F08002DA609B684F
:101C98009B0605D42046FFF78DFF08B12368D5E7DA
:101CA80023686069DA6C22F00302DA64E269D96CAD
:101CB80002430A43DA64FF225A62012384F821307E
:101CC800CAE770B5044600284AD00023836290F81A
:101CD8005D3003F0FF021BB980F85C2001F07EFA4A
:101CE8000223216884F85D300B68E26823F0400322
:101CF800B2F5E06F0B604FF000032ED91846B2F52D
:101D0800706F18BFA362236B2BB9B2F5E06F8CBF5D
:101D1800022301232363A6686368A5693343266900
:101D2800334366693343E6693343266A3343A66A15
:101D3800334305F4007633430B60636A1A43636BDD
:101D48002D0C1A4305F004052A4302430123002001
:101D58004A60206684F85D3070BD4FF48050D0E74B
:101D6800012070BD0A4B013B01D103207047026975
:101D7800002AF8DA0369064A43F001030361013ACD
:101D8800F3D0036913F00103F9D11846704700BF77
:101D9800410D030084B038B505AD85E80E000A9BF7
:101DA800012B04461BD1836B23F480338363C36800
:101DB80023F4840323F04003C360C36823F440136F
:101DC800C360119B012B02BFC36843F48013C36037
:101DD800FFF7C8FFBDE83840002004B07047C3686B
:101DE80043F04003C360FFF7BDFF4FF48033A363A4
:101DF800F0E7836843F0010383600020704783683D
:101E080023F0010383600020704708B5C3680129E7
:101E180023F0C043C36008D1C36843F00053C360D4
:101E28003220FEF703FA002008BD19B9C36843F051
:101E38008043F4E7012008BD890141F02001064AEA
:101E48000161013A05D0036913F02003F9D118465E
:101E580070470320704700BF410D03001023064A56
:101E68000361013A05D0036913F01003F9D118464C
:101E780070470320704700BF410D0300D0F80038B9
:101E88001943C0F8001800207047000084B02DE9FD
:101E9800F041044607A880E80E000023119F8846F9
:101EA800194603F1400204EB820201330F2B516003
:101EB800F7D1A36B43F40013A3635FB9A36B23F4B7
:101EC8000013A363236843F040032360236843F0AF
:101ED800800323600025C4F8005ED4F80038C4F8F5
:101EE800003803212046FFF7C9FF04F500661021DA
:101EF8002046FFF7A1FF2046FFF7B0FF35612B46CC
:101F080075612946F56104F510624FF090404FF075
:101F180000654FF67F3E43452FD1002104F530621E
:101F280008464FF090454FF0006E4FF67F3C8B42CD
:101F380034D1336923F4807333610023A3616FF0D4
:101F480080436361A36943F01003A361A2691C4B3A
:101F58001343A3610D9B1BB1A36943F00803A3615D
:101F6800012F01BFA36943F0804343F00403A36139
:101F7800BDE8F041002004B07047D2F800C0BCF1C1
:101F8800000F09DA33B9156011610133C2F808E0AE
:101F98002032C0E71060F7E71160F5E7D2F800805B
:101FA800B8F1000F0ADA39B9C2F800E0106101315E
:101FB800C2F808C02032BAE71560F7E71060F5E705
:101FC80000383C8070B54A780C78D0F81C6800F569
:101FD8000063012A04F00F051BD1AA40324300EB2D
:101FE8004410DA61D0F800391A0410D48B68C97823
:101FF800D0F80029C3F30A0343F0805343F40043A5
:1020080043EA814343EA84531343C0F8003900206C
:1020180070BD4FF48032AA40324300EB4410DA61BD
:10202800D0F8003B1B04F2D48B68C978D0F8002B99
:10203800C3F30A0343F0805343F4004343EA814364
:102048001343C0F8003BE2E730B54B780C78D0F882
:102058003C1800F50062012B04F00F0510D1AB40CD
:10206800DB431940D163D16900EB44100B40D361C5
:10207800D0F800290B4B1340C0F80039002030BDC0
:102088004FF48033AB40DB431940D163D16900EB97
:1020980044100B40D361D0F8002B034B1340C0F819
:1020A800003BEBE7007833EC0078F3EF70B54B7842
:1020B8000A784D69354E012B4FF0200345D113FBAB
:1020C800020345BBD3F8104924F0FF5424F4C0148C
:1020D800C3F81049D3F8104944F40024C3F8104950
:1020E800D3F810492640C3F810694B694BB10B78F7
:1020F800D0F8345803F00F0101238B402B43C0F86C
:10210800343800EB4210D0F8001941F00441C0F80F
:102118000019002070BD03F510631C6926401E617C
:102128001C6924F0FF5424F4C0141C618C68A54277
:1021380088BF4C611C6944F400241C614C691D690A
:10214800C4F312042C431C61CFE713FB020000F513
:1021580030631A6932401A611A6922F0FF5222F478
:10216800C0121A618A6805B14A61196941F40021EF
:1021780019611969C2F312020A431A61D0F8003BC7
:1021880043F00443C0F8003BC3E700BF0000F8FF7A
:10219800033300EB023223F0030302F580520B44B1
:1021A800994201D10020704751F8040B1060F7E7FD
:1021B800F8B54B780D785F4E012B4FF020024B6934
:1021C80012FB050269D183BB02F51064D2F810290D
:1021D80022F0FF5222F4C0122261226942F4002246
:1021E8002261226916402661CE78012E00F0948083
:1021F80053B10A78D0F834E802F00F040122A24063
:1022080042EA0E02C0F8342800EB4512012ED2F83B
:10221800004944F00444C2F8004904D10A78C96866
:102228009BB2FFF7B5FF0020F8BDD2F81049344043
:10223800C2F81049D2F810498E6824F0FF5424F4EB
:10224800C014C2F810499C19013CB4FBF6F63A4C8C
:10225800D2F8107904EAC6443C43C2F81049D2F8CF
:102268001069C3F312043443C2F81049CC78012C26
:1022780002F51062B8D1146924F0C04414611469DD
:1022880044F000541461AFE712FB0502D2F800498C
:1022980044F00054C2F80049B6E702F530652C69ED
:1022A80034402C612C6924F0FF5424F4C0142C61B0
:1022B8008C68FBB92B69C4F312041C432C612B698D
:1022C80043F400232B61CB78012B0CD1D0F80838CC
:1022D80013F4807FD2F8003B0CBF43F0005343F067
:1022E8008053C2F8003BD2F8003B43F00443C2F8E5
:1022F800003B98E7104E2F692344013BB3FBF4F3EE
:1023080006EAC3463E432E619BB22E695C43C4F382
:10231800120434432C61D6E7D0F8082812F4807FE1
:102328004FF02002B0D012FB0502D2F8004944F069
:102338008054AFE70000F8FF0000F81F033222F0D6
:1023480003020A4400F58050914201D108467047C3
:10235800036841F8043BF7E74B780A78012B4FF004
:10236800200313FB020012D1D0F80039002B06DB42
:102378002AB1D0F8003923F08043C0F80039D0F8EA
:10238800003943F40013C0F8003900207047D0F832
:10239800003B002B06DB2AB1D0F8003B23F080433A
:1023A800C0F8003BD0F8003B43F40013C0F8003BF2
:1023B800EBE74B780A78012B4FF0200313FB020060
:1023C80011D1D0F8003923F40013C0F80039CB78C4
:1023D800023B012B05D8D0F8003943F08053C0F8F0
:1023E800003900207047D0F8003B23F40013C0F8F0
:1023F800003BCB78023B012B9EBFD0F8003B43F05B
:102408008053C0F8003BECE7D0F8003823F4FE63B3
:10241800C0F80038D0F80038090101F4FE6119430A
:10242800C0F800180020704708B5D0F8043823F029
:102438000203C0F804380320FDF7F8FE002008BDA9
:1024480008B5D0F8043843F00203C0F80438032074
:10245800FDF7ECFE002008BD426980691040704716
:10246800D0F8183800F50060C0691840000C7047B3
:10247800D0F8183800F50060C069184080B270477D
:1024880000EB411100F50060D1F8082B40691040BD
:10249800704710B5D0F81048D0F8343800EB411028
:1024A80001F00F01CB4000F51060DB018068DBB262
:1024B8002343184010BD406900F001007047D0F870
:1024C800003923F4FF6323F00703C0F8003900F54F
:1024D80000639A6802F00602042A02BFD0F80029B5
:1024E80042F00302C0F800295A6842F480725A6028
:1024F8000020704700F53063002018611A6942F423
:1025080000221A611A6942F018021A611A6942F027
:10251800C0421A617047D0F8943210B5D0F8904292
:102528005BB194F80002FF2807D09B6894F8012259
:1025380021469847FF2384F80032002010BD000090
:10254800432303800048704738000020432303805A
:10255800004870477C0000204323038000487047F0
:10256800CC0000200A23038000487047C0000020E8
:1025780038B50546D0F8904201F05AF8D5F89032AF
:10258800C4F80C024BB1D5F89432D4F80402DB68D5
:1025980004F503719847002038BD022038BDF8B50E
:1025A800D0F89062D6B1142303FB0103DD698DB125
:1025B800D0F898421C2707FB0142526CB5FBF2F495
:1025C80002FB145434B9DC612246234601F014F8A6
:1025D8002046F8BD0020C6F81402F8BD0220F8BD58
:1025E8002DE9F7430A78D0F890724FF0000812F0FE
:1025F800600405460E468DF80580ADF8068028D0A3
:10260800202C47D1CC884B78E4B1120611D5D0F8EC
:1026180094223946D2F8089018462246C847F288CC
:102628003946284600F050FC4446204603B0BDE831
:10263800F08387F8003287F801422246394600F0D5
:1026480058FCF1E7D0F89422184695682246A84726
:10265800EBE74F780A2F0DD00B2F15D0D7B990F88C
:102668007432032B14D102220DF1060100F02CFC68
:102678003C46DAE790F87432032B09D101220DF1B8
:10268800050100F021FCD0E790F87432032BCCD080
:102698003146284600F0F1FB0224C6E738B5044667
:1026A8000025812100F05CFF0121E562204600F051
:1026B80057FFC4F858518221204600F051FFD4F842
:1026C800903225644BB1D4F894325B689847D4F8BB
:1026D800900200F0E9FFC4F89052002038BD037C56
:1026E8002DE9F0410446CBBB4FF40073022281214F
:1026F800012500F025FFE5624FF400732946022208
:10270800204600F01DFFC4F85851082303228221F7
:102718002046012500F014FF25644FF4077000F0EF
:10272800BFFF0646C4F8900258B3D4F894321B6829
:10273800984794F810800027C6F81472C6F81872E3
:10274800B8F1000F13D14FF40073D6F804222946CC
:10275800204600F05FFF4046BDE8F081402302229A
:102768008121012500F0ECFEE5624023C6E7402305
:10277800D6F804222946204600F04CFF3846BDE82A
:10278800F0812846BDE8F08119B1C0F89412002004
:10279800704702207047D0F890320020C3F8081222
:1027A800C3F810227047D0F890320020C3F8041202
:1027B8007047D0F8902210B582B1D2F814420123A4
:1027C80074B9C2F81432D2F810320363D2F808226E
:1027D8009BB2812100F010FF204610BD022010BDE1
:1027E800184610BDD0F8902210B562B1047C44B9E7
:1027F8004FF40073D2F80422012100F00BFF0020EF
:1028080010BD4023F6E7022010BD08B580B1D0F80E
:102818008C3213B10023C0F88C3209B1C0F8881289
:10282800012380F87432027000F04CFE002008BDCD
:10283800022008BD19B1C0F88C1200207047022090
:10284800704708B500F06EFE002008BD08B5D0F846
:102858008C320BB9022008BD1B6898470028F9D1B3
:1028680008BD08B5D0F88C325B689847002008BDD1
:1028780038B5044600F52075284600F0EAFA012329
:1028880094F88012C4F86C32B4F88632C4F8703206
:1028980001F01F03012B0ED007D3022B10D001F03B
:1028A8008001204600F06AFE03E02946204600F039
:1028B80001F9002038BD2946204600F01DFAF8E746
:1028C8002946204600F03DFAF3E770B5054616465E
:1028D80039BBD0F86C32032B1ED1D0F84C31D0F86C
:1028E800502193420BD99B1A9A42C0F84C318CBFA5
:1028F8009AB292B2314600F00BFB002070BDD0F8BE
:102908008C321B6923B190F87422032A00D19847AE
:10291800284600F005FBF0E7052BEED100F02EFE6F
:10292800EBE7D0F88C329B692BB190F87422032A1C
:1029380001D19847E1E7022070BD70B513460446FF
:102948000E46002948D1D0F86C22022A3DD1056AEA
:10295800426A954214D9AA1A0262194692B200F044
:10296800C0FA33461A461946204600F053FE94F83A
:102978007832012B4FF000003AD184F8780270BD0C
:10298800C369B3FBF2F502FB153565B99A420AD85B
:10299800D0F87022934206D22A4600F0A2FAC4F870
:1029A80070522B46DEE7D4F88C32DB682BB194F8F2
:1029B8007422032A01D1204698478021204600F03E
:1029C800DDFD204600F0B7FAD1E732F00403CED19E
:1029D800802100F0D3FDCAE7D0F88C325B6933B1AF
:1029E80090F87422032A02D19847002070BD022073
:1029F80070BD70B5002204461146012540264023CB
:102A080000F09EFD33468021C4F84451C4F850615B
:102A18000022204600F094FDD4F89032A5610021F0
:102A2800666284F87452C4F86C126160C4F87C124F
:102A380023B1D4F88C3220465B689847002070BDDB
:102A480001740020704790F8743280F875320423BE
:102A580080F874320020704790F8753280F874322C
:102A68000020704708B590F87422032A04D1D0F8E2
:102A78008C32DB6903B19847002008BD00207047FD
:102A8800002070470020704708B5012280F87422A2
:102A9800D0F88C22017952689047002008BD10B503
:102AA8008021044600F06AFD20460021BDE8104060
:102AB80000F064BD37B50B7803F06003202B0446A3
:102AC8000D4614D0402B12D0002B40F095804B7847
:102AD800092B00F29080DFE813F0E70001018E0077
:102AE800FA008E00820013008E00D200A000D4F8F5
:102AF8008C3229469B6820469847002003B030BD99
:102B08004B881A0A013A0E2A75D8DFE802F0242801
:102B1800357474555E747474747474740800D0F8E1
:102B28008832DB69207C0DF106019847BDF8062044
:102B380052B1EB8843B19A4228BF1A460146204653
:102B4800ADF8062000F0C0F9EB88002BD5D120465F
:102B580000F0E6F9D1E7D0F888321B68E2E7027C9A
:102B6800D0F88C3232B99B6A0DF1060098470223DF
:102B78004370DBE7DB6AF7E7DBB2052B3BD8DFE81E
:102B880003F003070B0F1317D0F888325B68C9E707
:102B9800D0F888329B68C5E7D0F88832DB68C1E78F
:102BA800D0F888321B69BDE7D0F888325B69B9E78D
:102BB800D0F888329B69B5E7037CE3B9D0F88C324A
:102BC8000DF106005B6B9847B0E7037C9BB9D0F822
:102BD8008C320DF106001B6B98470723C8E78B88DA
:102BE8004BB9CB883BB94D887F2D04D890F8743207
:102BF800032BE9B203D12046FFF751FF7DE780F8A8
:102C0800761200F0EBFC204600F08AF91DB1022391
:102C180084F8743271E70123FAE78978354D012980
:102C28002970E8D890F87432022B08D0032B14D0FE
:102C3800FFF735FF29782046FFF713FE5DE70029E7
:102C480085D001210323416080F874322046FFF7C4
:102C5800FDFD02287FF47BAFCDE731B9022380F870
:102C680074324160FFF7FDFD71E7416801293FF4C7
:102C78006EAFC9B2FFF7F5FD29786160E6E7CA884B
:102C8800012AB8D190F87432002BB4D0022B03D9A2
:102C9800032BB0D1011D03E00146002341F8083F92
:102CA800204600F011F928E790F87432013B022B16
:102CB800A1D8CB88022B9ED10123C360D0F87C32E7
:102CC8000BB10323C360022204F10C01E8E74B882F
:102CD800012B7FF412AFC4F87C3238E790F87432D5
:102CE800013B022B87D84B88012B7FF406AF0023CA
:102CF800F1E700BF8401002038B50B7803F06003CA
:102D0800202B04460D4602D0402B00D0B3B994F8CE
:102D18007432013B022B10D82B79012B0DD8D4F833
:102D28008C3229469B6820469847EB881BB910B916
:102D3800204600F0F5F8002038BD2046FFF7AFFE2A
:102D4800F9E738B50A7802F06002202A04460B46F3
:102D580013D0402A11D06AB95D788A88012DD1B282
:102D68001FD035D3032D05D190F87422022A26D01E
:102D7800032A0AD0FFF793FE05E0D4F88C221946FF
:102D8800926820469047002038BD5A882AB94A06DA
:102D980003D0DB880BB900F0F1FB204600F0C0F847
:102DA800F1E790F87422022A09D0032AE2D15B885D
:102DB800002BE8D14D06F0D000F0EEFBEDE74B0616
:102DC80017D000F0DBFB8021204600F0D7FBDAE7C4
:102DD80090F87432022B0ED0032BCBD112F0800F57
:102DE8004FF0140301F00F0203FB020212D09269A4
:102DF800DAB92046BEE74906FBD113064CBF00F1FD
:102E0800140100F5A07100230B600222204600F097
:102E18005BF8B8E7D2F84421002AEAD001F07F0530
:102E280003FB050505F5A07504E001F07F0505FB2A
:102E38000335054411F07F0303D12B600222294694
:102E4800E4E7204600F0B6FB08B10123F5E7286067
:102E5800F4E70B7803704B784370CA788B7803EBF0
:102E6800022343804A790B7903EB02238380CA79D2
:102E78008B7903EB0223C380704710B58021044689
:102E880000F07CFB20460021BDE8104000F076BB36
:102E980030B588B105462B1A15F8014BDBB2002C6A
:102EA800F9D101335B0013800B7003234B70013899
:102EB800022310F8015F05B930BD5A1CD2B2CD54B7
:102EC8000233DBB28C54F4E710B513460222C0F883
:102ED8006C22C3610A460362002100F08DFB0020CA
:102EE80010BD08B513460A46002100F085FB0020F6
:102EF80008BD10B513460322C0F86C22C0F848314B
:102F08000A46C0F84C31002100F084FB002010BDB7
:102F180008B513460A46002100F07CFB002008BDD6
:102F280008B50423C0F86C3200231A46194600F08D
:102F380063FB002008BD08B50523C0F86C320023E8
:102F48001A46194600F066FB002008BD2DE9F0413D
:102F5800B8B014274422002105A800F055FC3A46D1
:102F68000021684600F050FC8822002116A800F0D5
:102F78004BFC092302240125032605934FF007087B
:102F88004FF480330DEB0700069312970A950F94C0
:102F980010961195CDF84C8014941594FEF740F8CE
:102FA8000F2304218DE84800684600230293039309
:102FB8000493FEF75BFA4FF4083316934FF08063DF
:102FC80031930C234FF40077199316A84FF480130C
:102FD8001D93379717961895CDF868801B941C9405
:102FE800FEF700FCFEF7DAFA3846FDF745FF38B081
:102FF800BDE8F08100B58BB0FDF7FAF8FFF7A6FF42
:10300800142200210DEB020000F0FEFB554B564840
:10301800DA6C42F00402DA64DA6C02F0040200921C
:10302800009ADA6C42F08002DA64DA6C02F080020C
:103038000192019ADA6C42F00102DA64DA6C02F069
:1030480001020292029ADA6C42F00202DA64DA6C45
:1030580002F002020392039ADA6C42F01002DA6478
:10306800DB6C03F01003049300220421049BFDF79A
:103078002FFA00224FF480713C48FDF729FA01220B
:103088004FF4805139480024FDF722FA0125384BC6
:10309800069305A94FF0904005950794FDF73CF974
:1030A800042305A930480593069507940894FDF76D
:1030B80033F94FF4807305A92C48059306950794B6
:1030C8000894FDF729F94FF4805305A9274805937B
:1030D800069507950894FDF71FF921462246062014
:1030E800FDF7C4F80620FDF7F5F82248224A846067
:1030F8004FF4827380E80C004FF4E063C36002234E
:1031080003614FF4007383610723C3624561C4619F
:1031180004624462846204634463FEF7D2FD00F0F3
:10312800C9F81648164B046180E818007F238360AD
:10313800FF23C36044618461C461FEF76DFD114BD8
:10314800CDF8194018681B7905908DF818308DF85E
:103158001D40052105A800F0F3F84FF47A70FDF73B
:1031680065F8F6E700100240000400480010004827
:1031780000001110D003002000300140AC030020F3
:103188000028004038380008704700000A4B1A6EC3
:1031980042F001021A661A6E82B002F00102009231
:1031A800009A9A6D42F080529A659B6D03F08053A5
:1031B8000193019B02B07047001002400268054B62
:1031C8009A4201BF044AD2F8903043F40043C2F84F
:1031D80090307047002800400010024010B50446A7
:1031E80088B01422002103A800F00EFB2268134BBC
:1031F8009A4220D103F5604303A91A6E104842F49D
:1032080080521A661A6E02F480520192019ADA6CA0
:1032180042F01002DA64DB6C03F010030293029BA5
:103228004FF4604303930223049303230693052377
:103238000793FDF771F808B010BD00BF00300140DA
:1032480000100048FEF7B4B9FEE7FEE7FEE7FEE728
:10325800704770477047FCF7DBBF0120FDF73EB9A8
:103268000148FDF7D9B900BFD01600200F49D1F8A1
:10327800883043F47003C1F888300D4B1A68002079
:1032880042F001021A6098601A6822F0A85222F4EB
:1032980010221A604FF48052DA601A6822F48022F1
:1032A8001A6098614FF000638B60704700ED00E092
:1032B8000010024008B500220A490B48FFF7A5FA9A
:1032C8000A490948FFF7B6FA09490748FFF75CFABF
:1032D800054800F0EAF920B10348BDE80840FFF7C7
:1032E800B0BA08BD240100203404002000000020EA
:1032F80014010020002070470020704710B5054CCD
:1033080001462046FFF74FFA2046FFF76BFA0020E8
:1033180010BD00BF3404002010B5064C0649002239
:103328002046FFF738FA05492046FFF73CFA002007
:1033380010BD00BF34040020D00E0020D0060020AD
:1033480010B5094CD4F89032D3F814320A4643B970
:1033580001462046FFF71FFA2046BDE81040FFF758
:1033680028BA012010BD00BF3404002010B503683E
:10337800B3F1A04F88B033D14FF4C0530393022365
:1033880004930023194C05930323069303A90A23E6
:103398004FF090400793FCF7BFFFE36C43F4805372
:1033A800E364E36C03F480530193019BA36DDB009A
:1033B80018D4A36D43F08053A365A36D03F0805325
:1033C8000293029BFDF78EFDA36D23F08053A36546
:1033D800002243201146FCF749FF4320FCF77AFFFF
:1033E80008B010BDFDF77EFDF2E700BF00100240F7
:1033F80000F57171D0F80404FFF73ABA1C2303FBF7
:103408000103D0F80404D3F80822FFF75EBA1C239E
:1034180003FB0103D0F804049A6CFFF78EBAD0F8C6
:103428000404FFF71FBB10B504460121D0F80404BB
:10343800FFF706FBD4F80404BDE81040FFF7D9BA3B
:103448000268D2F8003E10B543F001030446C2F802
:10345800003ED0F80404FFF7F6FA236A23B1034AC2
:10346800136943F00603136110BD00BF00ED00E0CF
:103478000268D2F8003E23F0010310B5C2F8003EFE
:10348800036A044633B1064A136923F0060313613D
:10349800FFF75CFDD4F80404BDE81040FFF7DCBA80
:1034A80000ED00E0D0F80404FFF7EABAD0F804040D
:1034B800FFF7E4BAD0F80404FFF7E4BAD0F804043C
:1034C800FFF7E2BA08B502783ABB154B0621C3F8F4
:1034D8000404C0F898324FF0A04083E803000221AA
:1034E8001846D9605A619961DA611A625A629A6219
:1034F8001A63DA62FCF7FEFF08B1FFF745FE802188
:103508000748FDF78FFC402200210548FDF769FCBC
:10351800802201210248FDF764FC002008BD00BF9D
:10352800D016002008B5D0F89802FDF760F80328F7
:103538009ABF024B185C022008BD00BF84380008FF
:1035480010B51C46D0F8980213462246FDF73EFBFC
:1035580003289ABF014B185C022010BD843800086C
:1035680008B5D0F89802FDF766FB03289ABF024B0E
:10357800185C022008BD00BF8438000808B5D0F8E0
:103588009802FDF7C3FB03289ABF024B185C022080
:1035980008BD00BF8438000808B5D0F89802FDF7C8
:1035A800EEFB03289ABF024B185C022008BD00BF3F
:1035B8008438000811F0800FD0F898324FF01C02C0
:1035C8001BBF01F07F0102FB013102FB013191F8C1
:1035D8003E0008BF91F8FE017047000008B5D0F81A
:1035E8009802FDF7DFFA03289ABF024B185C022005
:1035F80008BD00BF8438000808B5D0F89802FDF768
:103608006AFB03289ABF024B185C022008BD00BF62
:103618008438000808B5D0F89802FDF736FB03286F
:103628009ABF024B185C022008BD00BF843800080E
:1036380008B5D0F89802FDF746FB08BD10B504465A
:1036480011B1012916D010BD036A33B1FFF77EFC12
:10365800124A136923F0060313612268D4F804049C
:10366800D2F8003E23F00103C2F8003EBDE8104046
:10367800FFF7F2B90268D0F80404D2F8003E43F02C
:103688000103C2F8003EFFF7DEF9236A23B1034ABB
:10369800136943F00603136110BD00BF00ED00E09D
:1036A80000487047880100207047D0F898329B6A1C
:1036B800012B14BF022000207047000012230B804A
:1036C800004870475001002004230B8000487047D1
:1036D800640100200C230B8000487047440100203F
:1036E80010B5044C04480A462146FFF7D1FB204692
:1036F80010BD00BFD81A0020A138000810B5044C2E
:1037080004480A462146FFF7C3FB204610BD00BF08
:10371800D81A0020B438000810B5044C04480A46EA
:103728002146FFF7B5FB204610BD00BFD81A002080
:10373800CA38000810B5044C04480A462146FFF769
:10374800A7FB204610BD00BFD81A00208838000803
:1037580010B5044C04480A462146FFF799FB204659
:1037680010BD00BFD81A002093380008DFF834D005
:10377800002103E00C4B5B58435004310B480C4BC1
:1037880042189A42F6D30B4A02E0002342F8043B5F
:10379800094B9A42F9D3FFF769FD00F011F8FFF7DA
:1037A80029FCFEE700800120E03800080000002026
:1037B8006801002068010020D81C0020FEE70000F6
:1037C80070B50D4E0D4CA41BA4100025A54209D1BF
:1037D8000B4E0C4C00F020F8A41BA4100025A542A9
:1037E80005D170BD56F8253098470135EEE756F8F3
:1037F800253098470135F2E7D8380008D83800084E
:10380800D8380008DC38000802440346934200D147
:10381800704703F8011BF9E7F8B500BFF8BC08BC0E
:103828009E467047F8B500BFF8BC08BC9E46704776
:103838005445535400000000000000000000000040
:10384800000001020304060708090000A086010021
:10385800400D0300801A060000350C0040420F009E
:1038680080841E0000093D0000127A000024F40044
:1038780000366E010048E801006CDC02000201021B
:1038880043444320436F6E666967004344432049BD
:103898006E746572666163650053544D6963726F37
:1038A800656C656374726F6E6963730053544D334E
:1038B80032205669727475616C20436F6D506F7257
:1038C800740030303030303030303030314100002A
:0438D800AD01000836
:0438DC008901000856
:1038E000E7260008A5260008E925000800000000DA
:1038F0001F250008A7250008792500080000000002
:1039000000000000000000005525000849250008BF
:10391000612500086D25000809024300020100C06E
:103920003209040000010202010005240010010513
:103930002401000104240202052406000107058277
:103940000308001009040100020A00000007050135
:103950000240000007058102400000000902430008
:10396000020100C032090400000102020100052426
:1039700000100105240100010424020205240600B0
:10398000010705820308001009040100020A000073
:103990000007050102000200070581020002000085
:1039A0000A06000200000040010000000907430071
:1039B000020104C0320904000001020201000524D2
:1039C0000010010524010001042402020524060060
:1039D000010705820308001009040100020A000023
:1039E00000070501024000000705810240000000B9
:1039F00000093D0021330008FD32000801330008B2
:103A000005330008C5360008D1360008E93600083D
:103A100005370008213700083D37000859370008EE
:103A2000DD360008050F0C0001071002020000003F
:103A30001201010202020040830440570002010209
:083A4000030100000403090466
:040000050800377543
:00000001FF
